:100000000C942A000C9434000C9434000C943400AA
:100010000C9434000C9434000C9434000C94340090
:100020000C9434000C9434000C9434000C94340080
:100030000C9434000C9434000C9434000C94340070
:100040000C9434000C9434000C9434000C94340060
:100050000C94340011241FBECFE5D8E0DEBFCDBF25
:100060000E9436000C94E8000C940000DF93CF93BC
:10007000CDB7DEB7AAE3B0E0EAE3F0E080818160CB
:100080008C93AAE3B0E0EAE3F0E0808182608C9395
:10009000A7E3B0E0E7E3F0E080818E7F8C93A7E3F5
:1000A000B0E0E7E3F0E080818D7F8C93A7E3B0E0E0
:1000B000E7E3F0E080818B7F8C93A8E3B0E0E8E396
:1000C000F0E0808181608C93A8E3B0E0E8E3F0E0A9
:1000D000808182608C93A8E3B0E0E8E3F0E0808167
:1000E00084608C93E6E3F0E08081882F90E081705B
:1000F0009070009739F4ABE3B0E0EBE3F0E080817F
:1001000081608C93E6E3F0E08081882F90E081703D
:100110009070882339F0ABE3B0E0EBE3F0E080814E
:100120008E7F8C93E6E3F0E080818695882F90E0C7
:1001300081709070009739F4ABE3B0E0EBE3F0E04E
:10014000808182608C93E6E3F0E080818695882F41
:1001500090E081709070882339F0ABE3B0E0EBE37E
:10016000F0E080818D7F8C93E6E3F0E080818695DE
:100170008695882F90E081709070009771F4ABE3C2
:10018000B0E0EBE3F0E0808181608C93ABE3B0E022
:10019000EBE3F0E0808182608C93E6E3F0E0808125
:1001A00086958695882F90E081709070882309F459
:1001B00099CFABE3B0E0EBE3F0E080818E7F8C93EE
:1001C000ABE3B0E0EBE3F0E080818D7F8C938ACFEE
:0401D000F894FFCFD1
:00000001FF
