:100000000C942A000C943F000C943F000C943F0089
:100010000C943F000C943F000C943F000C943F0064
:100020000C943F000C943F000C943F000C943F0054
:100030000C943F000C943F000C943F000C943F0044
:100040000C943F000C943F000C943F000C943F0034
:100050000C943F0011241FBECFE5D8E0DEBFCDBF1A
:1000600011E0A0E6B0E0E2EEFBE502C005900D92E3
:10007000AE3BB107D9F70E94722D0C94EF2D0C9472
:100080000000EF92FF920F931F937B018C0120E001
:1000900030E040E05FE40E94410388238CF0C80117
:1000A000B70120E030E040E05FE40E94B9010E9427
:1000B000FF039B01AC01205030404040504806C037
:1000C000C801B7010E94FF039B01AC01B901CA013D
:1000D0001F910F91FF90EF900895A0E0B0E0E3E74B
:1000E000F0E00C94B82DDC012B01FA019C919230C8
:1000F00008F439C1EB018881823008F433C19430AF
:1001000069F4843009F02FC111969C91119789816F
:10011000981709F428C1A0E6B0E025C1843009F49D
:1001200021C18230A9F4923009F01DC19A01AD01BC
:1001300088E0EA010990AE01E90109929E0181502F
:10014000C1F7E201898111969C918923818308C1BD
:10015000923009F407C112962D903C901397EB0151
:100160008A819B811496AD90BD90CD90DC901797BD
:10017000EC80FD800E811F819101281B390BB90194
:1001800037FF04C066277727621B730B6032710547
:100190000CF061C0121613066CF537014801062EEB
:1001A00004C096948794779467940A94D2F721E0D8
:1001B00030E040E050E004C0220F331F441F551FC1
:1001C0006A95D2F721503040404050402E213F21C7
:1001D00040235123211531054105510521F021E02E
:1001E00030E040E050E079018A01E628F72808294C
:1001F00019293CC0232BD1F1260E371E35014601AB
:10020000062E04C096948794779467940A94D2F744
:1002100021E030E040E050E004C0220F331F441FD3
:10022000551F6A95D2F721503040404050402A2156
:100230003B214C215D21211531054105510521F05E
:1002400021E030E040E050E059016A01A628B728DB
:10025000C828D9280BC0821593052CF01C01AA24AC
:10026000BB24650103C0EE24FF24870111969C91F5
:10027000D20111968C91981709F445C0992339F051
:10028000A80197012A193B094C095D0906C0A6017E
:1002900095012E193F09400B510B57FD08C01182E3
:1002A0003382228224833583468357831DC081E0B5
:1002B00081833382228288279927DC01821B930B5A
:1002C000A40BB50B84839583A683B7830DC0220F3F
:1002D000331F441F551F24833583468357838281F0
:1002E000938101979383828324813581468157814D
:1002F000DA01C9010197A109B1098F5F9F4FAF4F83
:10030000BF4328F30BC0918333822282EA0CFB1C8B
:100310000C1D1D1DE482F5820683178383E0808314
:10032000248135814681578157FF1AC0C901AA2708
:1003300097FDA095BA2F81709070A070B0705695FF
:10034000479537952795822B932BA42BB52B848328
:100350009583A683B7838281938101969383828359
:10036000DF0101C0D201CD01CDB7DEB7E2E10C94CF
:10037000D42DA0E2B0E0EFEBF1E00C94C42D698342
:100380007A838B839C832D833E834F835887E9E058
:10039000EE2EF12CEC0EFD1ECE010196B7010E944F
:1003A000F0058E010F5E1F4FCE010596B8010E9429
:1003B000F0058A8991E089278A8BC701B801AE01CF
:1003C000475E5F4F0E946D000E941B05A096E6E00D
:1003D0000C94E02DA0E2B0E0E0EFF1E00C94C42D2D
:1003E00069837A838B839C832D833E834F835887D5
:1003F000F9E0EF2EF12CEC0EFD1ECE010196B701B7
:100400000E94F0058E010F5E1F4FCE010596B801C8
:100410000E94F005C701B801AE01475E5F4F0E9420
:100420006D000E941B05A096E6E00C94E02DA0E272
:10043000B0E0EDE1F2E00C94B82D69837A838B8310
:100440009C832D833E834F835887CE010196BE0146
:10045000675F7F4F0E94F005CE010596BE016F5E7B
:100460007F4F0E94F0059985923088F0898982300B
:10047000C8F0943019F4823051F404C0843029F467
:10048000923081F480E690E0C6C0923049F420E0DA
:100490009A858A89981321E02A87CE010996BBC0E4
:1004A000823049F420E09A858A89981321E02A8BCA
:1004B000CE014196B0C02D843E844F8458886D880B
:1004C0007E888F88988CEE24FF248701AA24BB2481
:1004D000650140E050E060E070E0E0E0F0E0C10184
:1004E00081709070892BE9F0E60CF71C081D191D2E
:1004F0009A01AB012A0D3B1D4C1D5D1D80E090E073
:10050000A0E0B0E0E614F7040805190520F481E046
:1005100090E0A0E0B0E0BA01A901480F591F6A1F9E
:100520007B1FAA0CBB1CCC1CDD1C97FE08C081E005
:1005300090E0A0E0B0E0A82AB92ACA2ADB2A3196C6
:10054000E032F10549F0660C771C881C991C569422
:10055000479437942794C3CFFA85EA892B893C893D
:100560008B859C85280F391F2E5F3F4F17C0CA010E
:1005700081709070892B61F016950795F794E79438
:1005800080E090E0A0E0B0E8E82AF92A0A2B1B2BD3
:1005900076956795579547952F5F3F4F77FDE7CF46
:1005A0000CC0440F551F661F771F17FD4160EE0CEE
:1005B000FF1C001F111F21503040403090E05907B0
:1005C00090E0690790E4790760F32B8F3C8FDB01A3
:1005D000CA018F779070A070B07080349105A1052A
:1005E000B10561F447FD0AC0E114F10401051105EC
:1005F00029F0405C5F4F6F4F7F4F40781A8EFE1797
:1006000011F081E08A8F4D8F5E8F6F8F78A383E02A
:10061000898FCE0149960E941B05A096E2E10C94B9
:10062000D42DA8E1B0E0E7E1F3E00C94C42D698398
:100630007A838B839C832D833E834F83588789E005
:10064000E82EF12CEC0EFD1ECE010196B7010E94A2
:10065000F0058E010F5E1F4FCE010596B8010E9476
:10066000F0058985823040F08989823028F0C70101
:10067000B8010E94680601C08FEF6896E6E00C940E
:10068000E02DA8E1B0E0E7E4F3E00C94C42D698329
:100690007A838B839C832D833E834F83588789E0A5
:1006A000E82EF12CEC0EFD1ECE010196B7010E9442
:1006B000F0058E010F5E1F4FCE010596B8010E9416
:1006C000F0058985823040F08989823028F0C701A1
:1006D000B8010E94680601C08FEF6896E6E00C94AE
:1006E000E02DA8E1B0E0E7E7F3E00C94C42D6983C6
:1006F0007A838B839C832D833E834F83588789E045
:10070000E82EF12CEC0EFD1ECE010196B7010E94E1
:10071000F0058E010F5E1F4FCE010596B8010E94B5
:10072000F0058985823040F08989823028F0C70140
:10073000B8010E94680601C081E06896E6E00C946A
:10074000E02DA8E0B0E0E7EAF3E00C94C12D9B01B6
:10075000AC0183E08983DA01C9018827B7FD83955D
:100760009927AA27BB27B82E211531054105510528
:1007700019F482E089833AC08823A9F0203080E010
:10078000380780E0480780E8580729F460E070E007
:1007900080E09FEC30C0EE24FF248701E21AF30AC8
:1007A000040B150B02C079018A018EE1C82ED12CF1
:1007B000DC82CB82ED82FE820F831887C801B701ED
:1007C0000E94CC0401971816190684F4082E04C060
:1007D000EE0CFF1C001F111F0A94D2F7ED82FE825F
:1007E0000F831887C81AD90ADC82CB82BA82CE015D
:1007F00001960E941B052896E9E00C94DD2DACE0E3
:10080000B0E0E5E0F4E00C94C82D69837A838B8333
:100810009C83CE010196BE016B5F7F4F0E94F00565
:100820008D81823061F1823050F1843021F48E81EB
:10083000882351F12EC02F81388537FD20C06E816D
:100840002F3131051CF06623F9F023C08EE190E0D2
:10085000821B930B29853A854B855C8504C0569590
:100860004795379527958A95D2F76623B1F050952D
:100870004095309521953F4F4F4F5F4F0EC020E080
:1008800030E040E050E009C02FEF3FEF4FEF5FE76F
:1008900004C020E030E040E050E8B901CA012C96E5
:1008A000E2E00C94E42DA8E0B0E0E9E5F4E00C947B
:1008B000C02D7B018C01611571058105910519F42D
:1008C00082E0898360C083E089838EE1C82ED12CC9
:1008D000DC82CB82ED82FE820F831887C801B701CC
:1008E0000E94CC04FC013197F7FF3BC0222733273D
:1008F0002E1B3F0B57016801022E04C0D694C794EB
:10090000B794A7940A94D2F740E050E060E070E01A
:1009100081E090E0A0E0B0E004C0880F991FAA1F1A
:10092000BB1F2A95D2F70197A109B1098E219F21FA
:10093000A023B1230097A105B10521F041E050E0CB
:1009400060E070E04A295B296C297D294D835E8334
:100950006F8378878EE190E08E1B9F0B9C838B8347
:1009600012C0309781F00E2E04C0EE0CFF1C001F49
:10097000111F0A94D2F7ED82FE820F831887CE1AD8
:10098000DF0ADC82CB821A82CE0101960E941B050F
:100990002896EAE00C94DC2DEF92FF920F931F93C0
:1009A0007B018C0180E0E81680E0F80681E0080712
:1009B00080E0180788F48FEFE816F10401051105AF
:1009C00031F028F088E090E0A0E0B0E017C080E0CF
:1009D00090E0A0E0B0E012C080E0E81680E0F80609
:1009E00080E0080781E0180728F088E190E0A0E0A7
:1009F000B0E004C080E190E0A0E0B0E020E230E0B0
:100A000040E050E0281B390B4A0B5B0B04C01695E5
:100A10000795F794E7948A95D2F7F701E859FF4FC5
:100A20008081281B310941095109C9011F910F918A
:100A3000FF90EF900895DF92EF92FF920F931F9334
:100A4000FC01E480F58006811781D18080818230AD
:100A500048F480E090E0A0E1B0E0E82AF92A0A2B0F
:100A60001B2BA5C0843009F49FC0823021F4EE24F2
:100A7000FF24870105C0E114F1040105110519F4F3
:100A8000E0E0F0E096C0628173819FEF6238790701
:100A90000CF05BC022E83FEF261B370B2A313105F3
:100AA0002CF020E030E040E050E02AC0B801A7017F
:100AB000022E04C076956795579547950A94D2F70C
:100AC00081E090E0A0E0B0E004C0880F991FAA1F69
:100AD000BB1F2A95D2F70197A109B1098E219F2149
:100AE000A023B1230097A105B10521F081E090E09A
:100AF000A0E0B0E09A01AB01282B392B4A2B5B2BED
:100B0000DA01C9018F779070A070B07080349105C0
:100B1000A105B10539F427FF09C0205C3F4F4F4FB5
:100B20005F4F04C0215C3F4F4F4F5F4FE0E0F0E06C
:100B30002030A0E03A07A0E04A07A0E45A0710F0EE
:100B4000E1E0F0E079018A0127C06038710564F5C1
:100B5000FB01E158FF4FD801C7018F779070A0705B
:100B6000B07080349105A105B10539F4E7FE0DC0E0
:100B700080E490E0A0E0B0E004C08FE390E0A0E06B
:100B8000B0E0E80EF91E0A1F1B1F17FF05C01695DF
:100B90000795F794E794319687E016950795F794B3
:100BA000E7948A95D1F705C0EE24FF248701EFEF83
:100BB000F0E06E2F679566276795902F9F77D79403
:100BC000DD24D7948E2F8695492F462B582F5D29EB
:100BD000B701CA011F910F91FF90EF90DF90089528
:100BE000FC01DB01408151812281622F6F7770E02F
:100BF000221F2227221F9381892F880F822B282FC3
:100C000030E0991F9927991F11969C9311972115F0
:100C10003105A9F5411551056105710511F482E011
:100C200037C082E89FEF13969C938E9312979A0198
:100C3000AB0167E0220F331F441F551F6A95D1F7A0
:100C400083E08C930DC0220F331F441F551F129653
:100C50008D919C911397019713969C938E93129765
:100C6000203080E0380780E0480780E4580758F3D8
:100C700014962D933D934D935C93179708952F3FB2
:100C8000310579F4411551056105710519F484E0C8
:100C90008C93089564FF03C081E08C9312C01C9272
:100CA00010C02F57304013963C932E93129783E039
:100CB0008C9387E0440F551F661F771F8A95D1F7E5
:100CC000706414964D935D936D937C93179708957C
:100CD0001F93DC01FB019C91923008F447C0808196
:100CE000823008F443C0943051F411961C91843042
:100CF00099F58181682F70E0611B71093FC08430D4
:100D000021F0923031F48230B9F18181882389F168
:100D10002DC011961C9111978230F1F08181181726
:100D2000D9F412962D913C91139782819381821769
:100D3000930794F028173907BCF014968D919D9174
:100D40000D90BC91A02D24813581468157812817B3
:100D500039074A075B0718F4112341F00AC08217CC
:100D60009307A407B50740F4112319F061E070E080
:100D700005C06FEF7FEF02C060E070E0CB011F9114
:100D80000895DF93CF930F92CDB7DEB71982EAE3D0
:100D9000F0E08FEF8083E7E3F0E08FEF8083E4E320
:100DA000F0E08FEF8083E1E3F0E08FEF8083EBE30F
:100DB000F0E01082E8E3F0E01082E5E3F0E010827A
:100DC000E2E3F0E0108281E0898389810F90CF9186
:100DD000DF910895DF93CF9300D000D00F92CDB76D
:100DE000DEB78A836B8319828A818430A8F58A8171
:100DF000282F30E03D832C838C819D8181309105AB
:100E0000D1F02C813D81223031052CF48C819D81E3
:100E1000009761F01EC02C813D812230310581F0A8
:100E20008C819D818330910581F013C0EAE3F0E06D
:100E30008B8180830EC0E7E3F0E08B81808309C063
:100E4000E4E3F0E08B81808304C0E1E3F0E08B8198
:100E5000808381E0898302C083E0898389810F9048
:100E60000F900F900F900F90CF91DF910895DF9327
:100E7000CF9300D000D00F92CDB7DEB78A836B83BB
:100E800019828A818430A8F58A81282F30E03D8339
:100E90002C838C819D8181309105D1F02C813D8105
:100EA000223031052CF48C819D81009761F01EC0A9
:100EB0002C813D812230310581F08C819D818330F0
:100EC000910581F013C0EBE3F0E08B8180830EC0CD
:100ED000E8E3F0E08B81808309C0E5E3F0E08B81FB
:100EE000808304C0E2E3F0E08B81808381E089832A
:100EF00002C083E0898389810F900F900F900F903B
:100F00000F90CF91DF910895DF93CF9300D000D061
:100F1000CDB7DEB78A8319828A81843008F041C058
:100F20008A81282F30E03C832B838B819C81813008
:100F30009105E9F02B813C81223031052CF48B8125
:100F40009C81009761F02AC02B813C8122303105C1
:100F5000B1F08B819C8183309105C9F01FC0AAE359
:100F6000B0E0EAE3F0E0808180958C9317C0A7E3BE
:100F7000B0E0E7E3F0E0808180958C930FC0A4E3BC
:100F8000B0E0E4E3F0E0808180958C9307C0A1E3BA
:100F9000B0E0E1E3F0E0808180958C9381E089838B
:100FA00002C083E0898389810F900F900F900F908A
:100FB000CF91DF910895DF93CF9300D000D0CDB7CC
:100FC000DEB78A8319828A81843008F041C08A8121
:100FD000282F30E03C832B838B819C8181309105CD
:100FE000E9F02B813C81223031052CF48B819C81EE
:100FF000009761F02AC02B813C8122303105B1F08D
:101000008B819C8183309105C9F01FC0ABE3B0E0B8
:10101000EBE3F0E0808180958C9317C0A8E3B0E00B
:10102000E8E3F0E0808180958C930FC0A5E3B0E009
:10103000E5E3F0E0808180958C9307C0A2E3B0E007
:10104000E2E3F0E0808180958C9381E0898302C0A7
:1010500083E0898389810F900F900F900F90CF913B
:10106000DF910895DF93CF9300D000D000D0CDB7AB
:10107000DEB78A837C836B8319828A81843008F08F
:1010800044C08B819C810097E9F18A81282F30E050
:101090003E832D838D819E8181309105E1F02D81EC
:1010A0003E81223031052CF48D819E81009761F0C4
:1010B00026C02D813E8122303105A1F08D819E8197
:1010C00083309105B1F01BC0EAE3F0E08081EB8151
:1010D000FC81808314C0E7E3F0E08081EB81FC8138
:1010E00080830DC0E4E3F0E08081EB81FC818083AC
:1010F00006C0E1E3F0E08081EB81FC81808381E048
:10110000898305C082E0898302C083E08983898165
:1011100026960FB6F894DEBF0FBECDBFCF91DF91FC
:101120000895DF93CF9300D000D000D0CDB7DEB7C5
:101130008A837C836B8319828A81843008F044C05F
:101140008B819C810097E9F18A81282F30E03E83D2
:101150002D838D819E8181309105E1F02D813E812D
:10116000223031052CF48D819E81009761F026C0DC
:101170002D813E8122303105A1F08D819E81833009
:101180009105B1F01BC0E9E3F0E08081EB81FC81C7
:10119000808314C0E6E3F0E08081EB81FC818083F2
:1011A0000DC0E3E3F0E08081EB81FC81808306C029
:1011B000E0E3F0E08081EB81FC81808381E0898342
:1011C00005C082E0898302C083E0898389812696F5
:1011D0000FB6F894DEBF0FBECDBFCF91DF9108955B
:1011E000DF93CF9300D000D000D0CDB7DEB78A8395
:1011F0006B834C8319828A81843008F0D1C08B8143
:10120000883008F0CDC08C81823008F0C9C08A8156
:10121000282F30E03E832D836D817E816130710502
:1012200009F441C08D819E818230910534F42D8175
:101230003E812115310571F0B0C06D817E81623033
:10124000710509F459C08D819E818330910509F49F
:101250007CC0A3C0AAE3B0E0EAE3F0E08081482FBD
:101260008B81282F30E081E090E002C0880F991F29
:101270002A95E2F7809584238C93AAE3B0E0EAE311
:10128000F0E08081482F8C81282F30E08B81882FDF
:1012900090E0B90102C0660F771F8A95E2F7CB0193
:1012A000842B8C937AC0A7E3B0E0E7E3F0E0808181
:1012B000482F8B81282F30E081E090E002C0880F1A
:1012C000991F2A95E2F7809584238C93A7E3B0E0D9
:1012D000E7E3F0E08081482F8C81282F30E08B817C
:1012E000882F90E0B90102C0660F771F8A95E2F758
:1012F000CB01842B8C9351C0A4E3B0E0E4E3F0E095
:101300008081482F8B81282F30E081E090E002C05F
:10131000880F991F2A95E2F7809584238C93A4E384
:10132000B0E0E4E3F0E08081482F8C81282F30E0AA
:101330008B81882F90E0B90102C0660F771F8A95D4
:10134000E2F7CB01842B8C9328C0A1E3B0E0E1E36A
:10135000F0E08081482F8B81282F30E081E090E001
:1013600002C0880F991F2A95E2F7809584238C93F9
:10137000A1E3B0E0E1E3F0E08081482F8C81282FE9
:1013800030E08B81882F90E0B90102C0660F771F93
:101390008A95E2F7CB01842B8C9381E0898302C08C
:1013A00083E08983898126960FB6F894DEBF0FBE4D
:1013B000CDBFCF91DF910895DF93CF9300D000D0C0
:1013C00000D0CDB7DEB78A836B834C8319828A81C4
:1013D000843008F0D1C08B81883008F0CDC08C817A
:1013E000823008F0C9C08A81282F30E03E832D83E7
:1013F0006D817E816130710509F441C08D819E81CE
:101400008230910534F42D813E812115310571F032
:10141000B0C06D817E816230710509F459C08D8143
:101420009E818330910509F47CC0A3C0ABE3B0E09A
:10143000EBE3F0E08081482F8B81282F30E081E0C2
:1014400090E002C0880F991F2A95E2F780958423C7
:101450008C93ABE3B0E0EBE3F0E08081482F8C812C
:10146000282F30E08B81882F90E0B90102C0660FF1
:10147000771F8A95E2F7CB01842B8C937AC0A8E37F
:10148000B0E0E8E3F0E08081482F8B81282F30E046
:1014900081E090E002C0880F991F2A95E2F78095BD
:1014A00084238C93A8E3B0E0E8E3F0E08081482F48
:1014B0008C81282F30E08B81882F90E0B90102C009
:1014C000660F771F8A95E2F7CB01842B8C9351C06E
:1014D000A5E3B0E0E5E3F0E08081482F8B81282F81
:1014E00030E081E090E002C0880F991F2A95E2F772
:1014F000809584238C93A5E3B0E0E5E3F0E0808160
:10150000482F8C81282F30E08B81882F90E0B90103
:1015100002C0660F771F8A95E2F7CB01842B8C936C
:1015200028C0A2E3B0E0E2E3F0E08081482F8B81A5
:10153000282F30E081E090E002C0880F991F2A95A3
:10154000E2F7809584238C93A2E3B0E0E2E3F0E03D
:101550008081482F8C81282F30E08B81882F90E06C
:10156000B90102C0660F771F8A95E2F7CB01842B81
:101570008C9381E0898302C083E0898389812696E8
:101580000FB6F894DEBF0FBECDBFCF91DF910895A7
:10159000DF93CF9300D000D00F92CDB7DEB78A8310
:1015A0006B8319828A81843008F075C08B81883002
:1015B00008F071C08A81282F30E03D832C838C8114
:1015C0009D818130910549F12C813D812230310589
:1015D0002CF48C819D81009761F05AC02C813D8153
:1015E0002230310571F18C819D8183309105E9F1C3
:1015F0004FC0AAE3B0E0EAE3F0E08081482F8B819E
:10160000282F30E081E090E0022E02C0880F991F61
:101610000A94E2F784278C933BC0A7E3B0E0E7E3AA
:10162000F0E08081482F8B81282F30E081E090E02E
:10163000022E02C0880F991F0A94E2F784278C9328
:1016400027C0A4E3B0E0E4E3F0E08081482F8B8181
:10165000282F30E081E090E0022E02C0880F991F11
:101660000A94E2F784278C9313C0A1E3B0E0E1E38E
:10167000F0E08081482F8B81282F30E081E090E0DE
:10168000022E02C0880F991F0A94E2F784278C93D8
:1016900081E0898302C083E0898389810F900F9064
:1016A0000F900F900F90CF91DF910895DF93CF931C
:1016B00000D000D00F92CDB7DEB78A836B8319823A
:1016C0008A81843008F075C08B81883008F071C041
:1016D0008A81282F30E03D832C838C819D8181304D
:1016E000910549F12C813D81223031052CF48C810A
:1016F0009D81009761F05AC02C813D8122303105D7
:1017000071F18C819D8183309105E9F14FC0ABE38C
:10171000B0E0EBE3F0E08081482F8B81282F30E0B0
:1017200081E090E0022E02C0880F991F0A94E2F730
:1017300084278C933BC0A8E3B0E0E8E3F0E080812D
:10174000482F8B81282F30E081E090E0022E02C0EC
:10175000880F991F0A94E2F784278C9327C0A5E38A
:10176000B0E0E5E3F0E08081482F8B81282F30E066
:1017700081E090E0022E02C0880F991F0A94E2F7E0
:1017800084278C9313C0A2E3B0E0E2E3F0E0808111
:10179000482F8B81282F30E081E090E0022E02C09C
:1017A000880F991F0A94E2F784278C9381E089833C
:1017B00002C083E0898389810F900F900F900F9072
:1017C0000F90CF91DF910895DF93CF93CDB7DEB720
:1017D00027970FB6F894DEBF0FBECDBF8A836B8309
:1017E0005D834C8319828A81843008F07FC08B81AD
:1017F000883008F07BC08C819D81009709F473C00C
:101800008A81282F30E03F832E834E815F814130D3
:10181000510559F18E819F818230910534F42E81DA
:101820003F812115310569F05BC04E815F814230F7
:10183000510579F18E819F818330910509F43DC076
:101840004FC0EAE3F0E08081282F30E08B81882FC1
:1018500090E0A90102C0559547958A95E2F7CA0123
:101860008170EC81FD8180833BC0E7E3F0E0808103
:10187000282F30E08B81882F90E0A90102C0559578
:1018800047958A95E2F7CA018170EC81FD818083DA
:1018900027C0E4E3F0E08081282F30E08B81882F9F
:1018A00090E0A90102C0559547958A95E2F7CA01D3
:1018B0008170EC81FD81808313C0E1E3F0E08081E1
:1018C000282F30E08B81882F90E0A90102C0559528
:1018D00047958A95E2F7CA018170EC81FD8180838A
:1018E00081E0898305C082E0898302C083E0898327
:1018F000898127960FB6F894DEBF0FBECDBFCF917A
:10190000DF910895DF93CF93CDB7DEB727970FB65A
:10191000F894DEBF0FBECDBF8A836B835D834C839B
:1019200019828A81843008F07FC08B81883008F06A
:101930007BC08C819D81009709F473C08A81282F18
:1019400030E03F832E834E815F814130510559F154
:101950008E819F818230910534F42E813F81211543
:10196000310569F05BC04E815F814230510579F1EC
:101970008E819F818330910509F43DC04FC0E9E31A
:10198000F0E08081282F30E08B81882F90E0A90142
:1019900002C0559547958A95E2F7CA018170EC819E
:1019A000FD8180833BC0E6E3F0E08081282F30E0BA
:1019B0008B81882F90E0A90102C0559547958A95A3
:1019C000E2F7CA018170EC81FD81808327C0E3E3E7
:1019D000F0E08081282F30E08B81882F90E0A901F2
:1019E00002C0559547958A95E2F7CA018170EC814E
:1019F000FD81808313C0E0E3F0E08081282F30E098
:101A00008B81882F90E0A90102C0559547958A9552
:101A1000E2F7CA018170EC81FD81808381E08983D6
:101A200005C082E0898302C083E08983898127968B
:101A30000FB6F894DEBF0FBECDBFCF91DF910895F2
:101A40000F931F93DF93CF93CDB7DEB7C854D04029
:101A50000FB6F894DEBF0FBECDBFFE01E95BFF4FAE
:101A60001082FE01ED5BFF4F80E090E0ACE0B2E45D
:101A700080839183A283B3838E01015C1F4FFE019B
:101A8000ED5BFF4F608171818281938120E030E0C6
:101A90004AE753E40E941702DC01CB01F80180837E
:101AA0009183A283B383FE01FF966081718182815D
:101AB000938120E030E040E85FE30E9471038823D7
:101AC0002CF481E090E09EAF8DAF46C0FE01FF9602
:101AD000608171818281938120E03FEF4FE757E47D
:101AE0000E941103181664F5FE01ED5BFF4F608143
:101AF00071818281938120E030E040E251E40E94D4
:101B00001702DC01CB01BC01CD010E944100DC01C8
:101B1000CB019EAF8DAF0FC089E190E09CAF8BAF42
:101B20008BAD9CAD0197F1F79CAF8BAF8DAD9EADAA
:101B300001979EAF8DAF8DAD9EAD009769F716C032
:101B4000FE01FF9660817181828193810E94410034
:101B5000DC01CB019EAF8DAF8DAD9EAD9AAF89AF4D
:101B600089AD9AAD0197F1F79AAF89AF80E060E057
:101B700041E00E94F008FE01E95BFF4F8083FE0117
:101B8000E95BFF4F8081813041F0FE01E95BFF4F4F
:101B9000808129968FAF299723C381E060E041E0DF
:101BA0000E94F008FE01E95BFF4F8083FE01E95BC4
:101BB000FF4F8081813041F0FE01E95BFF4F808162
:101BC00029968FAF29970CC382E060E041E00E9424
:101BD000F008FE01E95BFF4F8083FE01E95BFF4FE8
:101BE0008081813041F0FE01E95BFF4F80812996C1
:101BF0008FAF2997F5C283E060E041E00E94F008D2
:101C0000FE01E95BFF4F8083FE01E95BFF4F8081AE
:101C1000813041F0FE01E95BFF4F808129968FAF53
:101C20002997DEC280E061E041E00E94F008FE01F9
:101C3000E95BFF4F8083FE01E95BFF4F80818130CC
:101C400041F0FE01E95BFF4F808129968FAF299714
:101C5000C7C281E061E041E00E94F008FE01E95B5B
:101C6000FF4F8083FE01E95BFF4F8081813041F0AF
:101C7000FE01E95BFF4F808129968FAF2997B0C2A3
:101C800082E061E041E00E94F008FE01E95BFF4F65
:101C90008083FE01E95BFF4F8081813041F0FE01CE
:101CA000E95BFF4F808129968FAF299799C283E026
:101CB00061E041E00E94F008FE01E95BFF4F808394
:101CC000FE01E95BFF4F8081813041F0FE01E95B5D
:101CD000FF4F808129968FAF299782C280E062E012
:101CE00041E00E94F008FE01E95BFF4F8083FE01A6
:101CF000E95BFF4F8081813041F0FE01E95BFF4FDE
:101D0000808129968FAF29976BC281E062E041E024
:101D10000E94F008FE01E95BFF4F8083FE01E95B52
:101D2000FF4F8081813041F0FE01E95BFF4F8081F0
:101D300029968FAF299754C282E062E041E00E9469
:101D4000F008FE01E95BFF4F8083FE01E95BFF4F76
:101D50008081813041F0FE01E95BFF4F808129964F
:101D60008FAF29973DC288E30E94FF10FE01E95B17
:101D7000FF4F8083FE01E95BFF4F8081813041F09E
:101D8000FE01E95BFF4F808129968FAF299728C21A
:101D900080E090E0A0E8BFE38DAB9EABAFABB8AF07
:101DA0006DA97EA98FA998AD20E030E04AE753E401
:101DB0000E941702DC01CB0189AB9AABABABBCAB89
:101DC00069A97AA98BA99CA920E030E040E85FE3EB
:101DD0000E94710388232CF481E090E098AB8FA7D8
:101DE0003FC069A97AA98BA99CA920E03FEF4FE7E2
:101DF00057E40E94110318164CF56DA97EA98FA90E
:101E000098AD20E030E040E251E40E941702DC018E
:101E1000CB01BC01CD010E944100DC01CB0198AB9C
:101E20008FA70FC089E190E09EA78DA78DA59EA5E5
:101E30000197F1F79EA78DA78FA598A9019798AB59
:101E40008FA78FA598A9009769F714C069A97AA9E7
:101E50008BA99CA90E944100DC01CB0198AB8FA704
:101E60008FA598A99CA78BA78BA59CA50197F1F797
:101E70009CA78BA78DE00E94FF10FE01E95BFF4F3E
:101E80008083FE01E95BFF4F8081813041F0FE01DC
:101E9000E95BFF4F808129968FAF2997A1C180E030
:101EA00090E0A0E8BFE38FA398A7A9A7BAA76FA166
:101EB00078A589A59AA520E030E04AE753E40E947E
:101EC0001702DC01CB018BA39CA3ADA3BEA36BA126
:101ED0007CA18DA19EA120E030E040E85FE30E945C
:101EE000710388232CF481E090E09AA389A33FC07A
:101EF0006BA17CA18DA19EA120E03FEF4FE757E4AD
:101F00000E94110318164CF56FA178A589A59AA512
:101F100020E030E040E251E40E941702DC01CB01F6
:101F2000BC01CD010E944100DC01CB019AA389A331
:101F30000FC089E190E098A38F8F8F8D98A10197B2
:101F4000F1F798A38F8F89A19AA101979AA389A3EA
:101F500089A19AA1009769F714C06BA17CA18DA1FA
:101F60009EA10E944100DC01CB019AA389A389A113
:101F70009AA19E8F8D8F8D8D9E8D0197F1F79E8FEB
:101F80008D8F81E00E94FF10FE01E95BFF4F80838F
:101F9000FE01E95BFF4F8081813041F0FE01E95B8A
:101FA000FF4F808129968FAF29971AC180E090E07A
:101FB000A0E4B0E4898F9A8FAB8FBC8F698D7A8D46
:101FC0008B8D9C8D20E030E04AE753E40E9417029D
:101FD000DC01CB018D8B9E8BAF8BB88F6D897E8999
:101FE0008F89988D20E030E040E85FE30E94710324
:101FF00088232CF481E090E09C8B8B8B3FC06D8913
:102000007E898F89988D20E03FEF4FE757E40E944B
:10201000110318164CF5698D7A8D8B8D9C8D20E0FF
:1020200030E040E251E40E941702DC01CB01BC0128
:10203000CD010E944100DC01CB019C8B8B8B0FC03A
:1020400089E190E09A8B898B89899A890197F1F7C8
:102050009A8B898B8B899C8901979C8B8B8B8B8925
:102060009C89009769F714C06D897E898F89988D46
:102070000E944100DC01CB019C8B8B8B8B899C895E
:10208000988B8F878F8598890197F1F7988B8F8729
:1020900086E00E94FF10FE01E95BFF4F8083FE0196
:1020A000E95BFF4F8081813041F0FE01E95BFF4F2A
:1020B000808129968FAF299793C080E090E0A0E8B7
:1020C000BFE38B879C87AD87BE876B857C858D85BD
:1020D0009E8520E030E04AE753E40E941702DC01CD
:1020E000CB018F839887A987BA876F817885898587
:1020F0009A8520E030E040E85FE30E947103882386
:102100002CF481E090E09E838D833FC06F817885C1
:1021100089859A8520E03FEF4FE757E40E9411033D
:1021200018164CF56B857C858D859E8520E030E00A
:1021300040E251E40E941702DC01CB01BC01CD0159
:102140000E944100DC01CB019E838D830FC089E199
:1021500090E09C838B838B819C810197F1F79C831A
:102160008B838D819E8101979E838D838D819E813E
:10217000009769F714C06F81788589859A850E94D8
:102180004100DC01CB019E838D838D819E819A83EA
:10219000898389819A810197F1F79A83898380E8FD
:1021A0000E94FF10FE01E95BFF4F8083FE01E95BA7
:1021B000FF4F8081813041F0FE01E95BFF4F80815C
:1021C00029968FAF29970CC0FE01E95BFF4F81E094
:1021D0008083FE01E95BFF4F808129968FAF2997AD
:1021E00029968FAD2997C85BDF4F0FB6F894DEBFF5
:1021F0000FBECDBFCF91DF911F910F910895DF9357
:10220000CF9300D00F92CDB7DEB78A83198280E0DA
:1022100060E040E00E94DC0989838981813019F007
:1022200089818B83AEC082E060E040E00E94DC09DF
:1022300089838981813019F089818B83A2C081E0F3
:1022400060E040E00E94DC0989838981813019F0D7
:1022500089818B8396C08A81982F991F9927991F0E
:1022600083E060E0492F0E94DC0989838981813005
:1022700019F089818B8385C08A81829586958695A0
:102280008370982F917080E061E0492F0E94DC09F3
:1022900089838981813019F089818B8372C08A8119
:1022A000829586958770982F917081E061E0492F23
:1022B0000E94DC0989838981813019F089818B83AF
:1022C00060C08A8182958F70982F917082E061E062
:1022D000492F0E94DC0989838981813019F0898125
:1022E0008B834FC08A81869586958695982F9170AD
:1022F00083E061E0492F0E94DC0989838981813074
:1023000019F089818B833DC08A8186958695982FA7
:10231000917080E062E0492F0E94DC098983898105
:10232000813019F089818B832CC08A818695982F02
:10233000917081E062E0492F0E94DC0989838981E4
:10234000813019F089818B831CC08A81982F91700C
:1023500082E062E0492F0E94DC0989838981813013
:1023600019F089818B830DC00E94C81189838981EE
:10237000813019F089818B8304C081E08983898150
:102380008B838B810F900F900F90CF91DF910895E9
:10239000DF93CF93CDB7DEB76E970FB6F894DEBF5D
:1023A0000FBECDBF1D8E82E060E041E00E94DC09DF
:1023B0008D8F8D8D813019F08D8D8E8FF4C080E0E2
:1023C00090E0A0E0B0E4898F9A8FAB8FBC8F698DCD
:1023D0007A8D8B8D9C8D20E030E04AE753E40E949B
:1023E0001702DC01CB018D8B9E8BAF8BB88F6D8973
:1023F0007E898F89988D20E030E040E85FE30E947D
:10240000710388232CF481E090E09C8B8B8B3FC080
:102410006D897E898F89988D20E03FEF4FE757E4E3
:102420000E94110318164CF5698D7A8D8B8D9C8D49
:1024300020E030E040E251E40E941702DC01CB01D1
:10244000BC01CD010E944100DC01CB019C8B8B8B38
:102450000FC089E190E09A8B898B89899A890197CD
:10246000F1F79A8B898B8B899C8901979C8B8B8B3D
:102470008B899C89009769F714C06D897E898F8943
:10248000988D0E944100DC01CB019C8B8B8B8B894A
:102490009C89988B8F878F8598890197F1F7988B06
:1024A0008F8782E060E040E00E94DC098D8F8D8D97
:1024B000813019F08D8D8E8F76C080E090E0A0EA9B
:1024C000B0E48B879C87AD87BE876B857C858D85C7
:1024D0009E8520E030E04AE753E40E941702DC01C9
:1024E000CB018F839887A987BA876F817885898583
:1024F0009A8520E030E040E85FE30E947103882382
:102500002CF481E090E09E838D833FC06F817885BD
:1025100089859A8520E03FEF4FE757E40E94110339
:1025200018164CF56B857C858D859E8520E030E006
:1025300040E251E40E941702DC01CB01BC01CD0155
:102540000E944100DC01CB019E838D830FC089E195
:1025500090E09C838B838B819C810197F1F79C8316
:102560008B838D819E8101979E838D838D819E813A
:10257000009769F714C06F81788589859A850E94D4
:102580004100DC01CB019E838D838D819E819A83E6
:10259000898389819A810197F1F79A83898381E000
:1025A0008D8F8D8D8E8F8E8D6E960FB6F894DEBFCB
:1025B0000FBECDBFCF91DF910895DF93CF9300D0B1
:1025C000CDB7DEB78A8319828A810E94EE12898391
:1025D00089810F900F90CF91DF910895DF93CF9372
:1025E00000D00F92CDB7DEB78A8319828A818032FC
:1025F00018F08A81882324F48A81813A08F4B9C0CA
:1026000080E060E041E00E94DC09898389818130BB
:1026100019F089818B83B1C082E060E040E00E94C4
:10262000DC0989838981813019F089818B83A5C078
:1026300081E060E040E00E94DC098983898181308B
:1026400019F089818B8399C08A81982F991F9927C6
:10265000991F83E060E0492F0E94DC09898389810A
:10266000813019F089818B8388C08A818295869513
:1026700086958370982F917080E061E0492F0E94C9
:10268000DC0989838981813019F089818B8375C048
:102690008A81829586958770982F917081E061E09C
:1026A000492F0E94DC0989838981813019F0898151
:1026B0008B8363C08A8182958F70982F917082E09E
:1026C00061E0492F0E94DC0989838981813019F0FA
:1026D00089818B8352C08A81869586958695982FAD
:1026E000917083E061E0492F0E94DC098983898130
:1026F000813019F089818B8340C08A8186958695C7
:10270000982F917080E062E0492F0E94DC09898354
:102710008981813019F089818B832FC08A818695C8
:10272000982F917081E062E0492F0E94DC09898333
:102730008981813019F089818B831FC08A81982F0C
:10274000917082E062E0492F0E94DC0989838981CF
:10275000813019F089818B8310C00E94C811898350
:102760008981813019F089818B8307C081E0898359
:1027700002C083E0898389818B838B810F900F90C6
:102780000F90CF91DF910895DF93CF9300D0CDB715
:10279000DEB78A8319828A810E94FF10898389812A
:1027A0000F900F90CF91DF910895DF93CF9300D0DA
:1027B0000F92CDB7DEB79B838A8319828A819B8172
:1027C0000E94EA13898389810F900F900F90CF9117
:1027D000DF910895DF93CF9300D000D0CDB7DEB75F
:1027E0009B838A8319828A819B810097D1F0EA8139
:1027F000FB818081882391F0EA81FB8180810E94A6
:10280000EE1289838981813019F089818C830DC012
:102810008A819B8101969B838A83E9CF81E08983AA
:1028200002C082E0898389818C838C810F900F9014
:102830000F900F90CF91DF910895DF93CF9300D049
:1028400000D00F92CDB7DEB78B836C831A828B8159
:10285000833070F58B81882359F18C81813140F56B
:102860008C81882329F119828B81813079F480E869
:10287000898399818C81890F81500E94FF108A83FE
:102880008A818130B9F08A818D8316C08B81823034
:1028900089F480EC898399818C81890F81500E9411
:1028A000FF108A838A81813029F08A818D8304C058
:1028B00083E08A838A818D838D810F900F900F90A2
:1028C0000F900F90CF91DF910895DF93CF93CDB705
:1028D000DEB729970FB6F894DEBF0FBECDBF2A83AF
:1028E0003B834C835D836E837F83888799871982BE
:1028F0008A819B81AC81BD81BC01CD010E948B147A
:102900008983898129960FB6F894DEBF0FBECDBFAB
:10291000CF91DF9108950F931F93DF93CF93CDB79E
:10292000DEB761970FB6F894DEBF0FBECDBF6D87DF
:102930007E878F87988B1A828D859E85AF85B88913
:10294000BB23CCF48DE20E94EE128A838A8181300F
:1029500019F08A81898B77C08D859E85AF85B8896E
:10296000B095A095909581959F4FAF4FBF4F8D87A4
:102970009E87AF87B88B19828D859E85AF85B88974
:102980000097A105B105C9F580E30E94EE128A8384
:102990008A81813009F453C08A81898B54C089812E
:1029A000082F10E08D859E85AF85B8892AE030E03C
:1029B00040E050E0BC01CD010E947B2DDC01CB0149
:1029C000282F205DCE010396FC01E00FF11F20832C
:1029D00089818F5F89838D859E85AF85B8892AE03F
:1029E00030E040E050E0BC01CD010E947B2DDA01D7
:1029F000C9018D879E87AF87B88B8D859E85AF85F2
:102A0000B889181619061A061B064CF215C08981DA
:102A1000815089838981282F30E0CE010396FC0103
:102A2000E20FF31F80810E94EE128A838A81813037
:102A300019F08A81898B07C08981882341F781E059
:102A40008A838A81898B898961960FB6F894DEBF63
:102A50000FBECDBFCF91DF911F910F910895DF93EE
:102A6000CF93CDB7DEB72F970FB6F894DEBF0FBE6A
:102A7000CDBF6B877C878D879E871A866B857C850B
:102A80008D859E8520E030E040E050E00E9471039B
:102A900088239CF48DE20E94EE128A878A85813019
:102AA00019F08A858F879BC08B859C85AD85BE85F7
:102AB000B0588B879C87AD87BE876B857C858D855D
:102AC0009E850E944100DC01CB019987888788851B
:102AD0009985CC01A0E0B0E0BC01CD010E948B142F
:102AE0008A878A85813019F08A858F8778C08EE23F
:102AF0000E94EE128A878A85813019F08A858F8735
:102B00006EC088859985CC01A0E0B0E0BC01CD0104
:102B10000E9453049B01AC016B857C858D859E854D
:102B20000E94B901DC01CB01BC01CD0127E137EBEB
:102B300041E558E30E94EA01DC01CB018C839D83CF
:102B4000AE83BF831B821A8242C06C817D818E81DD
:102B50009F8120E030E040E251E40E941702DC0156
:102B6000CB018C839D83AE83BF836C817D818E81FD
:102B70009F810E944100DC01CB0189838981805DB6
:102B80000E94EE128A878A85813019F08A858F87A4
:102B900026C08981882F90E0AA2797FDA095BA2F9B
:102BA000BC01CD010E94A1039B01AC016C817D8120
:102BB0008E819F810E94B901DC01CB018C839D83B2
:102BC000AE83BF838A819B8101969B838A838A819E
:102BD0009B81843091050CF4B8CF8A858F878F85CF
:102BE0002F960FB6F894DEBF0FBECDBFCF91DF9109
:102BF0000895DF93CF9300D00F92CDB7DEB79B83BC
:102C00008A83198280E40E94FF100AC0EA81FB8156
:102C100080810E94EE128A819B8101969B838A8328
:102C2000EA81FB818081882389F780E80E94FF1078
:102C300080E00E94DD1289810F900F900F90CF915C
:102C4000DF910895DF93CF930F92CDB7DEB719824E
:102C500089810F90CF91DF910895DF93CF9300D0BA
:102C600000D0CDB7DEB79C838B831A828B819C8189
:102C7000009709F423C1198219821BC18981882F09
:102C800090E09C01220F331F220F331F8B819C8108
:102C9000FC01E20FF31F40818981882F90E09C01A5
:102CA000220F331F220F331F8B819C81FC01E20F07
:102CB000F31F9181842F692F41E00E94F0088A83DD
:102CC0008981882F90E09C01220F331F220F331F30
:102CD0008B819C81FC01E20FF31F8281882309F024
:102CE00069C08981882F90E09C01220F331F220F39
:102CF000331F8B819C81FC01E20FF31F83818823AA
:102D000019F58981882F90E09C01220F331F220F33
:102D1000331F8B819C81FC01E20FF31F408189816D
:102D2000882F90E09C01220F331F220F331F8B81CD
:102D30009C81FC01E20FF31F9181842F692F40E0F9
:102D40000E94DC098A83B2C08981882F90E09C01AF
:102D5000220F331F220F331F8B819C81FC01E20F56
:102D6000F31F8381813019F58981882F90E09C01C0
:102D7000220F331F220F331F8B819C81FC01E20F36
:102D8000F31F40818981882F90E09C01220F331F1F
:102D9000220F331F8B819C81FC01E20FF31F918175
:102DA000842F692F41E00E94DC098A837FC083E081
:102DB00089837CC08981882F90E09C01220F331F7A
:102DC000220F331F8B819C81FC01E20FF31F828154
:102DD000813009F069C08981882F90E09C01220F21
:102DE000331F220F331F8B819C81FC01E20FF31FE5
:102DF0008381882319F58981882F90E09C01220F17
:102E0000331F220F331F8B819C81FC01E20FF31FC4
:102E100040818981882F90E09C01220F331F220F6F
:102E2000331F8B819C81FC01E20FF31F9181842F62
:102E3000692F41E00E94DC098A8338C08981882F8C
:102E400090E09C01220F331F220F331F8B819C8146
:102E5000FC01E20FF31F8381813019F58981882FEE
:102E600090E09C01220F331F220F331F8B819C8126
:102E7000FC01E20FF31F40818981882F90E09C01C3
:102E8000220F331F220F331F8B819C81FC01E20F25
:102E9000F31F9181842F692F40E00E94DC098A830F
:102EA00005C083E08A8302C083E08A8389818F5FC3
:102EB00089838981833008F4E1CE02C082E08A836D
:102EC0008A810F900F900F900F90CF91DF9108950E
:102ED000DF93CF9300D00F92CDB7DEB79B838A8369
:102EE00019828A819B81009729F1EA81FB81828185
:102EF000882361F4EA81FB818081EA81FB819181F1
:102F0000692F40E00E94DC09898316C0EA81FB81B9
:102F10008281813061F4EA81FB818081EA81FB81D9
:102F20009181692F41E00E94DC09898305C083E01B
:102F3000898302C082E0898389810F900F900F906E
:102F4000CF91DF910895DF93CF9300D00F92CDB74B
:102F5000DEB79B838A8319828A819B81009729F13E
:102F6000EA81FB818281882361F4EA81FB8180818F
:102F7000EA81FB819181692F41E00E94DC0989830C
:102F800016C0EA81FB818281813061F4EA81FB8194
:102F90008081EA81FB819181692F40E00E94DC09F8
:102FA000898305C083E0898302C082E089838981A7
:102FB0000F900F900F90CF91DF910895DF93CF93F3
:102FC00000D000D00F92CDB7DEB79C838B831A82DE
:102FD00019828B819C81009709F4E1C719820C94B6
:102FE000CA1F8981482F50E0CA01880F991F9C0190
:102FF000220F331F220F331F220F331F820F931F05
:103000009C01240F351F8B819C81FC01E20FF31F73
:1030100060818981482F50E0CA01880F991F9C0167
:10302000220F331F220F331F220F331F820F931FD4
:103030009C01240F351F8B819C81FC01E20FF31F43
:103040009181862F692F41E00E94F0088A838A814E
:10305000813021F08A818D830C94D31F8981482F80
:1030600050E0CA01880F991F9C01220F331F220FC5
:10307000331F220F331F820F931F9C01240F351F14
:103080008B819C81FC01E20FF31F62818981482FB3
:1030900050E0CA01880F991F9C01220F331F220F95
:1030A000331F220F331F820F931F9C01240F351FE4
:1030B0008B819C81FC01E20FF31F9381862F692F86
:1030C00041E00E94F0088A838A81813019F08A8168
:1030D0008D8369C78981482F50E0CA01880F991FE5
:1030E0009C01220F331F220F331F220F331F820F29
:1030F000931F9C01240F351F8B819C81FC01E20FE3
:10310000F31F64818981482F50E0CA01880F991FFD
:103110009C01220F331F220F331F220F331F820FF8
:10312000931F9C01240F351F8B819C81FC01E20FB2
:10313000F31F9581862F692F41E00E94F0088A8352
:103140008A81813019F08A818D832DC78981482F2A
:1031500050E0CA01880F991F9C01220F331F220FD4
:10316000331F220F331F820F931F9C01240F351F23
:103170008B819C81FC01E20FF31F66818981482FBE
:1031800050E0CA01880F991F9C01220F331F220FA4
:10319000331F220F331F820F931F9C01240F351FF3
:1031A0008B819C81FC01E20FF31F9781862F692F91
:1031B00041E00E94F0088A838A81813019F08A8177
:1031C0008D83F1C68981482F50E0CA01880F991F6D
:1031D0009C01220F331F220F331F220F331F820F38
:1031E000931F9C01240F351F8B819C81FC01E20FF2
:1031F000F31F60858981482F50E0CA01880F991F0D
:103200009C01220F331F220F331F220F331F820F07
:10321000931F9C01240F351F8B819C81FC01E20FC1
:10322000F31F9185862F692F41E00E94F0088A8361
:103230008A81813019F08A818D83B5C68981482FB2
:1032400050E0CA01880F991F9C01220F331F220FE3
:10325000331F220F331F820F931F9C01240F351F32
:103260008B819C81FC01E20FF31F62858981482FCD
:1032700050E0CA01880F991F9C01220F331F220FB3
:10328000331F220F331F820F931F9C01240F351F02
:103290008B819C81FC01E20FF31F9385862F692FA0
:1032A00041E00E94F0088A838A81813019F08A8186
:1032B0008D8379C68981482F50E0CA01880F991FF4
:1032C0009C01220F331F220F331F220F331F820F47
:1032D000931F9C01240F351F8B819C81FC01E20F01
:1032E000F31F64858981482F50E0CA01880F991F18
:1032F0009C01220F331F220F331F220F331F820F17
:10330000931F9C01240F351F8B819C81FC01E20FD0
:10331000F31F9585862F692F41E00E94F0088A836C
:103320008A81813019F08A818D833DC68981482F39
:1033300050E0CA01880F991F9C01220F331F220FF2
:10334000331F220F331F820F931F9C01240F351F41
:103350008B819C81FC01E20FF31F8289813009F08F
:10336000A5C18981482F50E0CA01880F991F9C018F
:10337000220F331F220F331F220F331F820F931F81
:103380009C01240F351F8B819C81FC01E20FF31FF0
:1033900060818981482F50E0CA01880F991F9C01E4
:1033A000220F331F220F331F220F331F820F931F51
:1033B0009C01240F351F8B819C81FC01E20FF31FC0
:1033C0009181862F692F40E00E94DC098A838A81DF
:1033D000813019F08A818D83E6C58981482F50E0BC
:1033E000CA01880F991F9C01220F331F220F331F20
:1033F000220F331F820F931F9C01240F351F8B81D7
:103400009C81FC01E20FF31F62818981482F50E00B
:10341000CA01880F991F9C01220F331F220F331FEF
:10342000220F331F820F931F9C01240F351F8B81A6
:103430009C81FC01E20FF31F9381862F692F40E0EE
:103440000E94DC098A838A81813019F08A818D8308
:10345000AAC58981482F50E0CA01880F991F9C0195
:10346000220F331F220F331F220F331F820F931F90
:103470009C01240F351F8B819C81FC01E20FF31FFF
:1034800064818981482F50E0CA01880F991F9C01EF
:10349000220F331F220F331F220F331F820F931F60
:1034A0009C01240F351F8B819C81FC01E20FF31FCF
:1034B0009581862F692F40E00E94DC098A838A81EA
:1034C000813019F08A818D836EC58981482F50E043
:1034D000CA01880F991F9C01220F331F220F331F2F
:1034E000220F331F820F931F9C01240F351F8B81E6
:1034F0009C81FC01E20FF31F66818981482F50E017
:10350000CA01880F991F9C01220F331F220F331FFE
:10351000220F331F820F931F9C01240F351F8B81B5
:103520009C81FC01E20FF31F9781862F692F40E0F9
:103530000E94DC098A838A81813019F08A818D8317
:1035400032C58981482F50E0CA01880F991F9C011C
:10355000220F331F220F331F220F331F820F931F9F
:103560009C01240F351F8B819C81FC01E20FF31F0E
:1035700060858981482F50E0CA01880F991F9C01FE
:10358000220F331F220F331F220F331F820F931F6F
:103590009C01240F351F8B819C81FC01E20FF31FDE
:1035A0009185862F692F40E00E94DC098A838A81F9
:1035B000813019F08A818D83F6C48981482F50E0CB
:1035C000CA01880F991F9C01220F331F220F331F3E
:1035D000220F331F820F931F9C01240F351F8B81F5
:1035E0009C81FC01E20FF31F62858981482F50E026
:1035F000CA01880F991F9C01220F331F220F331F0E
:10360000220F331F820F931F9C01240F351F8B81C4
:103610009C81FC01E20FF31F9385862F692F40E008
:103620000E94DC098A838A81813019F08A818D8326
:10363000BAC48981482F50E0CA01880F991F9C01A4
:10364000220F331F220F331F220F331F820F931FAE
:103650009C01240F351F8B819C81FC01E20FF31F1D
:1036600064858981482F50E0CA01880F991F9C0109
:10367000220F331F220F331F220F331F820F931F7E
:103680009C01240F351F8B819C81FC01E20FF31FED
:103690009585862F692F40E00E94DC098A838A8104
:1036A000813009F4C4C18A818D837DC48981482F0A
:1036B00050E0CA01880F991F9C01220F331F220F6F
:1036C000331F220F331F820F931F9C01240F351FBE
:1036D0008B819C81FC01E20FF31F8289882309F012
:1036E000A4C18981482F50E0CA01880F991F9C010D
:1036F000220F331F220F331F220F331F820F931FFE
:103700009C01240F351F8B819C81FC01E20FF31F6C
:1037100060818981482F50E0CA01880F991F9C0160
:10372000220F331F220F331F220F331F820F931FCD
:103730009C01240F351F8B819C81FC01E20FF31F3C
:103740009181862F692F41E00E94DC098A838A815A
:10375000813019F08A818D8326C48981482F50E0F9
:10376000CA01880F991F9C01220F331F220F331F9C
:10377000220F331F820F931F9C01240F351F8B8153
:103780009C81FC01E20FF31F62818981482F50E088
:10379000CA01880F991F9C01220F331F220F331F6C
:1037A000220F331F820F931F9C01240F351F8B8123
:1037B0009C81FC01E20FF31F9381862F692F41E06A
:1037C0000E94DC098A838A81813019F08A818D8385
:1037D000EAC38981482F50E0CA01880F991F9C01D4
:1037E000220F331F220F331F220F331F820F931F0D
:1037F0009C01240F351F8B819C81FC01E20FF31F7C
:1038000064818981482F50E0CA01880F991F9C016B
:10381000220F331F220F331F220F331F820F931FDC
:103820009C01240F351F8B819C81FC01E20FF31F4B
:103830009581862F692F41E00E94DC098A838A8165
:10384000813019F08A818D83AEC38981482F50E081
:10385000CA01880F991F9C01220F331F220F331FAB
:10386000220F331F820F931F9C01240F351F8B8162
:103870009C81FC01E20FF31F66818981482F50E093
:10388000CA01880F991F9C01220F331F220F331F7B
:10389000220F331F820F931F9C01240F351F8B8132
:1038A0009C81FC01E20FF31F9781862F692F41E075
:1038B0000E94DC098A838A81813019F08A818D8394
:1038C00072C38981482F50E0CA01880F991F9C015B
:1038D000220F331F220F331F220F331F820F931F1C
:1038E0009C01240F351F8B819C81FC01E20FF31F8B
:1038F00060858981482F50E0CA01880F991F9C017B
:10390000220F331F220F331F220F331F820F931FEB
:103910009C01240F351F8B819C81FC01E20FF31F5A
:103920009185862F692F41E00E94DC098A838A8174
:10393000813019F08A818D8336C38981482F50E008
:10394000CA01880F991F9C01220F331F220F331FBA
:10395000220F331F820F931F9C01240F351F8B8171
:103960009C81FC01E20FF31F62858981482F50E0A2
:10397000CA01880F991F9C01220F331F220F331F8A
:10398000220F331F820F931F9C01240F351F8B8141
:103990009C81FC01E20FF31F9385862F692F41E084
:1039A0000E94DC098A838A81813019F08A818D83A3
:1039B000FAC28981482F50E0CA01880F991F9C01E3
:1039C000220F331F220F331F220F331F820F931F2B
:1039D0009C01240F351F8B819C81FC01E20FF31F9A
:1039E00064858981482F50E0CA01880F991F9C0186
:1039F000220F331F220F331F220F331F820F931FFB
:103A00009C01240F351F8B819C81FC01E20FF31F69
:103A10009585862F692F41E00E94DC098A838A817F
:103A2000813029F08A818D83BEC283E08A838981B7
:103A3000482F50E0CA01880F991F9C01220F331FA5
:103A4000220F331F220F331F820F931F9C01240F5D
:103A5000351F8B819C81FC01E20FF31F868584302A
:103A600008F007C18981482F50E0CA01880F991FCB
:103A70009C01220F331F220F331F220F331F820F8F
:103A8000931F9C01240F351F8B819C81FC01E20F49
:103A9000F31F8785883008F0ECC08981482F50E0FB
:103AA000CA01880F991F9C01220F331F220F331F59
:103AB000220F331F820F931F9C01240F351F8B8110
:103AC0009C81FC01E20FF31F66858981482F50E03D
:103AD000CA01880F991F9C01220F331F220F331F29
:103AE000220F331F820F931F9C01240F351F8B81E0
:103AF0009C81FC01E20FF31F9785862F692F41E01F
:103B00000E94F0088A838A81813019F08A818D832E
:103B10004AC28981482F50E0CA01880F991F9C0131
:103B2000220F331F220F331F220F331F820F931FC9
:103B30009C01240F351F8B819C81FC01E20FF31F38
:103B400082898130E9F58981482F50E0CA01880FC8
:103B5000991F9C01220F331F220F331F220F331F87
:103B6000820F931F9C01240F351F8B819C81FC01C8
:103B7000E20FF31F66858981482F50E0CA01880F44
:103B8000991F9C01220F331F220F331F220F331F57
:103B9000820F931F9C01240F351F8B819C81FC0198
:103BA000E20FF31F9785862F692F40E00E94DC0902
:103BB0008A838A81813009F492C08A818D83F3C11E
:103BC0008981482F50E0CA01880F991F9C01220F5C
:103BD000331F220F331F220F331F820F931F9C01AD
:103BE000240F351F8B819C81FC01E20FF31F82891A
:103BF0008823E1F58981482F50E0CA01880F991F79
:103C00009C01220F331F220F331F220F331F820FFD
:103C1000931F9C01240F351F8B819C81FC01E20FB7
:103C2000F31F66858981482F50E0CA01880F991FCC
:103C30009C01220F331F220F331F220F331F820FCD
:103C4000931F9C01240F351F8B819C81FC01E20F87
:103C5000F31F9785862F692F41E00E94DC098A8334
:103C60008A818130E1F18A818D839DC183E08A83DD
:103C700036C08981482F50E0CA01880F991F9C01E6
:103C8000220F331F220F331F220F331F820F931F68
:103C90009C01240F351F8B819C81FC01E20FF31FD7
:103CA00086858830D1F48981482F50E0CA01880F79
:103CB000991F9C01220F331F220F331F220F331F26
:103CC000820F931F9C01240F351F8B819C81FC0167
:103CD000E20FF31F8785883011F083E08A838981A2
:103CE000482F50E0CA01880F991F9C01220F331FF3
:103CF000220F331F220F331F820F931F9C01240FAB
:103D0000351F8B819C81FC01E20FF31F8089843079
:103D100008F007C18981482F50E0CA01880F991F18
:103D20009C01220F331F220F331F220F331F820FDC
:103D3000931F9C01240F351F8B819C81FC01E20F96
:103D4000F31F8189883008F0ECC08981482F50E04A
:103D5000CA01880F991F9C01220F331F220F331FA6
:103D6000220F331F820F931F9C01240F351F8B815D
:103D70009C81FC01E20FF31F60898981482F50E08C
:103D8000CA01880F991F9C01220F331F220F331F76
:103D9000220F331F820F931F9C01240F351F8B812D
:103DA0009C81FC01E20FF31F9189862F692F41E06E
:103DB0000E94F0088A838A81813019F08A818D837C
:103DC000F2C08981482F50E0CA01880F991F9C01D9
:103DD000220F331F220F331F220F331F820F931F17
:103DE0009C01240F351F8B819C81FC01E20FF31F86
:103DF00082898130E9F58981482F50E0CA01880F16
:103E0000991F9C01220F331F220F331F220F331FD4
:103E1000820F931F9C01240F351F8B819C81FC0115
:103E2000E20FF31F60898981482F50E0CA01880F93
:103E3000991F9C01220F331F220F331F220F331FA4
:103E4000820F931F9C01240F351F8B819C81FC01E5
:103E5000E20FF31F9189862F692F40E00E94DC0951
:103E60008A838A81813009F492C08A818D839BC0C4
:103E70008981482F50E0CA01880F991F9C01220FA9
:103E8000331F220F331F220F331F820F931F9C01FA
:103E9000240F351F8B819C81FC01E20FF31F828967
:103EA0008823E1F58981482F50E0CA01880F991FC6
:103EB0009C01220F331F220F331F220F331F820F4B
:103EC000931F9C01240F351F8B819C81FC01E20F05
:103ED000F31F60898981482F50E0CA01880F991F1C
:103EE0009C01220F331F220F331F220F331F820F1B
:103EF000931F9C01240F351F8B819C81FC01E20FD5
:103F0000F31F9189862F692F41E00E94DC098A8383
:103F10008A818130E1F18A818D8345C083E08A8383
:103F200036C08981482F50E0CA01880F991F9C0133
:103F3000220F331F220F331F220F331F820F931FB5
:103F40009C01240F351F8B819C81FC01E20FF31F24
:103F500080898830D1F48981482F50E0CA01880FC8
:103F6000991F9C01220F331F220F331F220F331F73
:103F7000820F931F9C01240F351F8B819C81FC01B4
:103F8000E20FF31F8189883011F083E08A838981F1
:103F90008F5F89838981823008F423C802C082E060
:103FA0008A838A818D838D810F900F900F900F905F
:103FB0000F90CF91DF910895DF93CF93CDB7DEB708
:103FC00069970FB6F894DEBF0FBECDBF8A836B83AF
:103FD00019828A81823008F044C48B818A3070F063
:103FE0008B81813418F08B81873440F08B8181364E
:103FF00008F437C48B81873608F033C48B8181364F
:1040000019F08B81813411F48AE08B838B818236A5
:1040100019F08B81823411F48BE08B838B81833692
:1040200019F08B81833411F48CE08B838B8184367F
:1040300019F08B81843411F48DE08B838B8185366C
:1040400019F08B81853411F48EE08B838B81863659
:1040500019F08B81863411F48FE08B838A81482F8D
:1040600050E0CA01880F991F9C01220F331F220FB5
:10407000331F220F331F820F931F840F951FFC01E4
:10408000EA56FE4F8081813009F0C9C18A81482FEC
:1040900050E0CA01880F991F9C01220F331F220F85
:1040A000331F220F331F820F931F840F951FFC01B4
:1040B000EC57FE4F60818A81482F50E0CA01880F7B
:1040C000991F9C01220F331F220F331F220F331F12
:1040D000820F931F840F951FFC01EB57FE4F208129
:1040E0008B81882F90E0FC01E655FE4F8081982F50
:1040F0009170862F622F492F0E94DC098983898164
:10410000813019F08981898FB0C38A81482F50E0AE
:10411000CA01880F991F9C01220F331F220F331FE2
:10412000220F331F820F931F840F951FFC01EA5744
:10413000FE4F60818A81482F50E0CA01880F991F85
:104140009C01220F331F220F331F220F331F820FB8
:10415000931F840F951FFC01E957FE4F20818B812F
:10416000882F90E0FC01E655FE4F80818695982FC0
:104170009170862F622F492F0E94DC0989838981E3
:10418000813019F08981898F70C38A81482F50E06E
:10419000CA01880F991F9C01220F331F220F331F62
:1041A000220F331F820F931F840F951FFC01E857C6
:1041B000FE4F60818A81482F50E0CA01880F991F05
:1041C0009C01220F331F220F331F220F331F820F38
:1041D000931F840F951FFC01E757FE4F20818B81B1
:1041E000882F90E0FC01E655FE4F808186958695EC
:1041F000982F9170862F622F492F0E94DC098983A6
:104200008981813019F08981898F2FC38A81482F54
:1042100050E0CA01880F991F9C01220F331F220F03
:10422000331F220F331F820F931F840F951FFC0132
:10423000E657FE4F60818A81482F50E0CA01880FFF
:10424000991F9C01220F331F220F331F220F331F90
:10425000820F931F840F951FFC01E557FE4F2081AD
:104260008B81882F90E0FC01E655FE4F808186957A
:1042700086958695982F9170862F622F492F0E94E0
:10428000DC0989838981813019F08981898FEDC2A8
:104290008A81482F50E0CA01880F991F9C01220F84
:1042A000331F220F331F220F331F820F931F840FE0
:1042B000951FFC01E457FE4F60818A81482F50E032
:1042C000CA01880F991F9C01220F331F220F331F31
:1042D000220F331F820F931F840F951FFC01E3579A
:1042E000FE4F20818B81882F90E0FC01E655FE4F28
:1042F000808182958F70982F9170862F622F492F21
:104300000E94DC0989838981813019F08981898F34
:10431000ACC28A81482F50E0CA01880F991F9C01C6
:10432000220F331F220F331F220F331F820F931FC1
:10433000840F951FFC01E257FE4F60818A81482F50
:1043400050E0CA01880F991F9C01220F331F220FD2
:10435000331F220F331F820F931F840F951FFC0101
:10436000E157FE4F20818B81882F90E0FC01E655BC
:10437000FE4F8081829586958770982F9170862F49
:10438000622F492F0E94DC0989838981813019F0CD
:104390008981898F6AC28A81482F50E0CA01880FBB
:1043A000991F9C01220F331F220F331F220F331F2F
:1043B000820F931F840F951FFC01E057FE4F608111
:1043C0008A81482F50E0CA01880F991F9C01220F53
:1043D000331F220F331F220F331F820F931F840FAF
:1043E000951FFC01EF56FE4F20818B81882F90E0B6
:1043F000FC01E655FE4F80818295869586958370F7
:10440000982F9170862F622F492F0E94DC09898393
:104410008981813009F427C28981898F26C28A81E6
:10442000482F50E0CA01880F991F9C01220F331FAB
:10443000220F331F220F331F820F931F840F951FEC
:10444000FC01EA56FE4F8081882309F007C28A8169
:10445000482F50E0CA01880F991F9C01220F331F7B
:10446000220F331F220F331F820F931F840F951FBC
:10447000FC01EC57FE4F8081888F8A81482F50E0E5
:10448000CA01880F991F9C01220F331F220F331F6F
:10449000220F331F820F931F840F951FFC01EB57D0
:1044A000FE4F80818F8B8B81882F90E0FC01E65539
:1044B000FE4F8081882F90E0817090701E8A009757
:1044C00011F481E08E8B888D6F894E890E94DC0902
:1044D00089838981813019F08981898FC6C18A8158
:1044E000482F50E0CA01880F991F9C01220F331FEB
:1044F000220F331F220F331F820F931F840F951F2C
:10450000FC01EA57FE4F80818D8B8A81482F50E055
:10451000CA01880F991F9C01220F331F220F331FDE
:10452000220F331F820F931F840F951FFC01E95741
:10453000FE4F80818C8B8B81882F90E0FC01E655AB
:10454000FE4F80818695882F90E0817090701B8A45
:10455000009711F481E08B8B8D896C894B890E94C7
:10456000DC0989838981813019F08981898F7DC136
:104570008A81482F50E0CA01880F991F9C01220FA1
:10458000331F220F331F220F331F820F931F840FFD
:10459000951FFC01E857FE4F80818A8B8A81482F46
:1045A00050E0CA01880F991F9C01220F331F220F70
:1045B000331F220F331F820F931F840F951FFC019F
:1045C000E757FE4F8081898B8B81882F90E0FC011B
:1045D000E655FE4F808186958695882F90E0817004
:1045E0009070188A009711F481E0888B8A89698914
:1045F00048890E94DC0989838981813019F0898189
:10460000898F33C18A81482F50E0CA01880F991FD2
:104610009C01220F331F220F331F220F331F820FE3
:10462000931F840F951FFC01E657FE4F80818F87F3
:104630008A81482F50E0CA01880F991F9C01220FE0
:10464000331F220F331F220F331F820F931F840F3C
:10465000951FFC01E557FE4F80818E878B81882F47
:1046600090E0FC01E655FE4F808186958695869503
:10467000882F90E0817090701D86009711F481E082
:104680008D878F856E854D850E94DC0989838981A0
:10469000813019F08981898FE8C08A81482F50E0E4
:1046A000CA01880F991F9C01220F331F220F331F4D
:1046B000220F331F820F931F840F951FFC01E457B5
:1046C000FE4F80818C878A81482F50E0CA01880F75
:1046D000991F9C01220F331F220F331F220F331FFC
:1046E000820F931F840F951FFC01E357FE4F8081BB
:1046F0008B878B81882F90E0FC01E655FE4F8081EF
:1047000082958F70882F90E0817090701A86009744
:1047100011F481E08A878C856B854A850E94DC09CB
:1047200089838981813019F08981898F9EC08A812E
:10473000482F50E0CA01880F991F9C01220F331F98
:10474000220F331F220F331F820F931F840F951FD9
:10475000FC01E257FE4F808189878A81482F50E013
:10476000CA01880F991F9C01220F331F220F331F8C
:10477000220F331F820F931F840F951FFC01E157F7
:10478000FE4F808188878B81882F90E0FC01E65561
:10479000FE4F8081829586958770882F90E081708A
:1047A00090701F82009711F481E08F83898568855E
:1047B0004F810E94DC0989838981813019F08981C8
:1047C000898F53C08A81482F50E0CA01880F991FF2
:1047D0009C01220F331F220F331F220F331F820F22
:1047E000931F840F951FFC01E057FE4F80818E833D
:1047F0008A81482F50E0CA01880F991F9C01220F1F
:10480000331F220F331F220F331F820F931F840F7A
:10481000951FFC01EF56FE4F80818D838B81882F81
:1048200090E0FC01E655FE4F808182958695869545
:104830008370882F90E0817090701C82009711F433
:1048400081E08C838E816D814C810E94DC0989839B
:104850008981813041F08981898F07C083E0898314
:1048600002C083E089838981898F898D69960FB61B
:10487000F894DEBF0FBECDBFCF91DF910895DF93D7
:10488000CF9300D0CDB7DEB78A8319828A81823078
:1048900008F0F6C08A81482F50E0CA01880F991F9E
:1048A0009C01220F331F220F331F220F331F820F51
:1048B000931F840F951FFC01EE56FE4F80818430BC
:1048C00008F0ABC08A81482F50E0CA01880F991FB9
:1048D0009C01220F331F220F331F220F331F820F21
:1048E000931F840F951FFC01ED56FE4F8081883089
:1048F00008F093C08A81482F50E0CA01880F991FA1
:104900009C01220F331F220F331F220F331F820FF0
:10491000931F840F951FFC01EA56FE4F8081813062
:1049200089F58A81482F50E0CA01880F991F9C01A0
:10493000220F331F220F331F220F331F820F931FAB
:10494000840F951FFC01EE56FE4F60818A81482F2F
:1049500050E0CA01880F991F9C01220F331F220FBC
:10496000331F220F331F820F931F840F951FFC01EB
:10497000ED56FE4F9081862F692F40E00E94DC09A2
:10498000898380C08A81482F50E0CA01880F991F0F
:104990009C01220F331F220F331F220F331F820F60
:1049A000931F840F951FFC01EA56FE4F80818823D8
:1049B00089F58A81482F50E0CA01880F991F9C0110
:1049C000220F331F220F331F220F331F820F931F1B
:1049D000840F951FFC01EE56FE4F60818A81482F9F
:1049E00050E0CA01880F991F9C01220F331F220F2C
:1049F000331F220F331F820F931F840F951FFC015B
:104A0000ED56FE4F9081862F692F41E00E94DC0910
:104A1000898338C083E0898335C08A81482F50E07C
:104A2000CA01880F991F9C01220F331F220F331FC9
:104A3000220F331F820F931F840F951FFC01EE5628
:104A4000FE4F80818830C9F48A81482F50E0CA0126
:104A5000880F991F9C01220F331F220F331F220F33
:104A6000331F820F931F840F951FFC01ED56FE4FDD
:104A70008081883011F4198205C083E0898302C0E7
:104A800083E0898389810F900F90CF91DF91089502
:104A9000DF93CF9300D0CDB7DEB78A8319828A81A6
:104AA000823008F0F6C08A81482F50E0CA01880F92
:104AB000991F9C01220F331F220F331F220F331F18
:104AC000820F931F840F951FFC01EE56FE4F8081CD
:104AD000843008F0ABC08A81482F50E0CA01880FAB
:104AE000991F9C01220F331F220F331F220F331FE8
:104AF000820F931F840F951FFC01ED56FE4F80819E
:104B0000883008F093C08A81482F50E0CA01880F8E
:104B1000991F9C01220F331F220F331F220F331FB7
:104B2000820F931F840F951FFC01EA56FE4F808170
:104B3000813089F58A81482F50E0CA01880F991F7A
:104B40009C01220F331F220F331F220F331F820FAE
:104B5000931F840F951FFC01EE56FE4F60818A81E2
:104B6000482F50E0CA01880F991F9C01220F331F64
:104B7000220F331F220F331F820F931F840F951FA5
:104B8000FC01ED56FE4F9081862F692F41E00E9477
:104B9000DC09898380C08A81482F50E0CA01880FD0
:104BA000991F9C01220F331F220F331F220F331F27
:104BB000820F931F840F951FFC01EA56FE4F8081E0
:104BC000882389F58A81482F50E0CA01880F991FF0
:104BD0009C01220F331F220F331F220F331F820F1E
:104BE000931F840F951FFC01EE56FE4F60818A8152
:104BF000482F50E0CA01880F991F9C01220F331FD4
:104C0000220F331F220F331F820F931F840F951F14
:104C1000FC01ED56FE4F9081862F692F40E00E94E7
:104C2000DC09898338C083E0898335C08A81482FB5
:104C300050E0CA01880F991F9C01220F331F220FD9
:104C4000331F220F331F820F931F840F951FFC0108
:104C5000EE56FE4F80818830C9F48A81482F50E09B
:104C6000CA01880F991F9C01220F331F220F331F87
:104C7000220F331F820F931F840F951FFC01ED56E7
:104C8000FE4F8081883011F4198205C083E089834A
:104C900002C083E0898389810F900F90CF91DF91CB
:104CA0000895DF93CF9300D0CDB7DEB78A83198202
:104CB0008A81823008F0F6C08A81482F50E0CA010C
:104CC000880F991F9C01220F331F220F331F220FC1
:104CD000331F820F931F840F951FFC01EC56FE4F6C
:104CE0008081843008F0ABC08A81482F50E0CA012F
:104CF000880F991F9C01220F331F220F331F220F91
:104D0000331F820F931F840F951FFC01EB56FE4F3C
:104D10008081883008F093C08A81482F50E0CA0112
:104D2000880F991F9C01220F331F220F331F220F60
:104D3000331F820F931F840F951FFC01EA56FE4F0D
:104D40008081813089F58A81482F50E0CA01880F1F
:104D5000991F9C01220F331F220F331F220F331F75
:104D6000820F931F840F951FFC01EC56FE4F60814C
:104D70008A81482F50E0CA01880F991F9C01220F99
:104D8000331F220F331F220F331F820F931F840FF5
:104D9000951FFC01EB56FE4F9081862F692F41E055
:104DA0000E94DC09898380C08A81482F50E0CA01B3
:104DB000880F991F9C01220F331F220F331F220FD0
:104DC000331F820F931F840F951FFC01EA56FE4F7D
:104DD0008081882389F58A81482F50E0CA01880F95
:104DE000991F9C01220F331F220F331F220F331FE5
:104DF000820F931F840F951FFC01EE56FE4F6081BA
:104E00008A81482F50E0CA01880F991F9C01220F08
:104E1000331F220F331F220F331F820F931F840F64
:104E2000951FFC01ED56FE4F9081862F692F40E0C3
:104E30000E94DC09898338C083E0898335C08A8178
:104E4000482F50E0CA01880F991F9C01220F331F81
:104E5000220F331F220F331F820F931F840F951FC2
:104E6000FC01EE56FE4F80818830C9F48A81482FBC
:104E700050E0CA01880F991F9C01220F331F220F97
:104E8000331F220F331F820F931F840F951FFC01C6
:104E9000ED56FE4F8081883011F4198205C083E001
:104EA000898302C083E0898389810F900F90CF911D
:104EB000DF910895DF93CF9300D0CDB7DEB78A831B
:104EC00019828A81823008F0F6C08A81482F50E02A
:104ED000CA01880F991F9C01220F331F220F331F15
:104EE000220F331F820F931F840F951FFC01EC5676
:104EF000FE4F8081843008F0ABC08A81482F50E09B
:104F0000CA01880F991F9C01220F331F220F331FE4
:104F1000220F331F820F931F840F951FFC01EB5646
:104F2000FE4F8081883008F093C08A81482F50E07E
:104F3000CA01880F991F9C01220F331F220F331FB4
:104F4000220F331F820F931F840F951FFC01EA5617
:104F5000FE4F8081813089F58A81482F50E0CA0157
:104F6000880F991F9C01220F331F220F331F220F1E
:104F7000331F820F931F840F951FFC01EC56FE4FC9
:104F800060818A81482F50E0CA01880F991F9C01D7
:104F9000220F331F220F331F220F331F820F931F45
:104FA000840F951FFC01EB56FE4F9081862F692FD1
:104FB00040E00E94DC09898380C08A81482F50E04C
:104FC000CA01880F991F9C01220F331F220F331F24
:104FD000220F331F820F931F840F951FFC01EA5687
:104FE000FE4F8081882389F58A81482F50E0CA01CD
:104FF000880F991F9C01220F331F220F331F220F8E
:10500000331F820F931F840F951FFC01EE56FE4F36
:1050100060818A81482F50E0CA01880F991F9C0146
:10502000220F331F220F331F220F331F820F931FB4
:10503000840F951FFC01ED56FE4F9081862F692F3E
:1050400041E00E94DC09898338C083E0898335C050
:105050008A81482F50E0CA01880F991F9C01220FB6
:10506000331F220F331F220F331F820F931F840F12
:10507000951FFC01EE56FE4F80818830C9F48A816D
:10508000482F50E0CA01880F991F9C01220F331F3F
:10509000220F331F220F331F820F931F840F951F80
:1050A000FC01ED56FE4F8081883011F4198205C055
:1050B00083E0898302C083E0898389810F900F9008
:1050C000CF91DF910895DF93CF9300D00F92CDB7AA
:1050D000DEB78A8319828A81823008F055C48A81BA
:1050E000482F50E0CA01880F991F9C01220F331FDF
:1050F000220F331F220F331F820F931F840F951F20
:10510000FC01EA56FE4F8081813009F012C28A818B
:10511000482F50E0CA01880F991F9C01220F331FAE
:10512000220F331F220F331F820F931F840F951FEF
:10513000FC01EC57FE4F60818A81482F50E0CA0184
:10514000880F991F9C01220F331F220F331F220F3C
:10515000331F820F931F840F951FFC01EB57FE4FE7
:105160009081862F692F40E00E94DC098983898124
:10517000813019F089818B830BC48A81482F50E0DC
:10518000CA01880F991F9C01220F331F220F331F62
:10519000220F331F820F931F840F951FFC01EA57C4
:1051A000FE4F60818A81482F50E0CA01880F991F05
:1051B0009C01220F331F220F331F220F331F820F38
:1051C000931F840F951FFC01E957FE4F9081862F96
:1051D000692F40E00E94DC0989838981813019F0C0
:1051E00089818B83D5C38A81482F50E0CA01880FFB
:1051F000991F9C01220F331F220F331F220F331FD1
:10520000820F931F840F951FFC01E857FE4F6081AA
:105210008A81482F50E0CA01880F991F9C01220FF4
:10522000331F220F331F220F331F820F931F840F50
:10523000951FFC01E757FE4F9081862F692F40E0B4
:105240000E94DC0989838981813019F089818B83EF
:105250009FC38A81482F50E0CA01880F991F9C0183
:10526000220F331F220F331F220F331F820F931F72
:10527000840F951FFC01E657FE4F60818A81482FFD
:1052800050E0CA01880F991F9C01220F331F220F83
:10529000331F220F331F820F931F840F951FFC01B2
:1052A000E557FE4F9081862F692F40E00E94DC0970
:1052B00089838981813019F089818B8369C38A81CF
:1052C000482F50E0CA01880F991F9C01220F331FFD
:1052D000220F331F220F331F820F931F840F951F3E
:1052E000FC01E457FE4F60818A81482F50E0CA01DB
:1052F000880F991F9C01220F331F220F331F220F8B
:10530000331F820F931F840F951FFC01E357FE4F3D
:105310009081862F692F40E00E94DC098983898172
:10532000813019F089818B8333C38A81482F50E003
:10533000CA01880F991F9C01220F331F220F331FB0
:10534000220F331F820F931F840F951FFC01E2571A
:10535000FE4F60818A81482F50E0CA01880F991F53
:105360009C01220F331F220F331F220F331F820F86
:10537000931F840F951FFC01E157FE4F9081862FEC
:10538000692F40E00E94DC0989838981813019F00E
:1053900089818B83FDC28A81482F50E0CA01880F22
:1053A000991F9C01220F331F220F331F220F331F1F
:1053B000820F931F840F951FFC01E057FE4F608101
:1053C0008A81482F50E0CA01880F991F9C01220F43
:1053D000331F220F331F220F331F820F931F840F9F
:1053E000951FFC01EF56FE4F9081862F692F40E0FC
:1053F0000E94DC0989838981813019F089818B833E
:10540000C7C28A81482F50E0CA01880F991F9C01AA
:10541000220F331F220F331F220F331F820F931FC0
:10542000840F951FFC01EC56FE4F8081843008F0FC
:105430004EC08A81482F50E0CA01880F991F9C01F5
:10544000220F331F220F331F220F331F820F931F90
:10545000840F951FFC01EB56FE4F80818830B8F514
:105460008A81482F50E0CA01880F991F9C01220FA2
:10547000331F220F331F220F331F820F931F840FFE
:10548000951FFC01EC56FE4F60818A81482F50E049
:10549000CA01880F991F9C01220F331F220F331F4F
:1054A000220F331F820F931F840F951FFC01EB56B1
:1054B000FE4F9081862F692F40E00E94DC0989838E
:1054C0008981813009F462C289818B8361C28A81BA
:1054D000482F50E0CA01880F991F9C01220F331FEB
:1054E000220F331F220F331F820F931F840F951F2C
:1054F000FC01EC56FE4F80818830C1F48A81482F30
:1055000050E0CA01880F991F9C01220F331F220F00
:10551000331F220F331F820F931F840F951FFC012F
:10552000EB56FE4F8081893008F430C283E08983D6
:105530002DC28A81482F50E0CA01880F991F9C0113
:10554000220F331F220F331F220F331F820F931F8F
:10555000840F951FFC01EA56FE4F8081882309F0D5
:1055600010C28A81482F50E0CA01880F991F9C0100
:10557000220F331F220F331F220F331F820F931F5F
:10558000840F951FFC01EC57FE4F60818A81482FE4
:1055900050E0CA01880F991F9C01220F331F220F70
:1055A000331F220F331F820F931F840F951FFC019F
:1055B000EB57FE4F9081862F692F41E00E94DC0956
:1055C00089838981813019F089818B83E1C18A8146
:1055D000482F50E0CA01880F991F9C01220F331FEA
:1055E000220F331F220F331F820F931F840F951F2B
:1055F000FC01EA57FE4F60818A81482F50E0CA01C2
:10560000880F991F9C01220F331F220F331F220F77
:10561000331F820F931F840F951FFC01E957FE4F24
:105620009081862F692F41E00E94DC09898389815E
:10563000813019F089818B83ABC18A81482F50E07A
:10564000CA01880F991F9C01220F331F220F331F9D
:10565000220F331F820F931F840F951FFC01E85701
:10566000FE4F60818A81482F50E0CA01880F991F40
:105670009C01220F331F220F331F220F331F820F73
:10568000931F840F951FFC01E757FE4F9081862FD3
:10569000692F41E00E94DC0989838981813019F0FA
:1056A00089818B8375C18A81482F50E0CA01880F98
:1056B000991F9C01220F331F220F331F220F331F0C
:1056C000820F931F840F951FFC01E657FE4F6081E8
:1056D0008A81482F50E0CA01880F991F9C01220F30
:1056E000331F220F331F220F331F820F931F840F8C
:1056F000951FFC01E557FE4F9081862F692F41E0F1
:105700000E94DC0989838981813019F089818B832A
:105710003FC18A81482F50E0CA01880F991F9C0120
:10572000220F331F220F331F220F331F820F931FAD
:10573000840F951FFC01E457FE4F60818A81482F3A
:1057400050E0CA01880F991F9C01220F331F220FBE
:10575000331F220F331F820F931F840F951FFC01ED
:10576000E357FE4F9081862F692F41E00E94DC09AC
:1057700089838981813019F089818B8309C18A816C
:10578000482F50E0CA01880F991F9C01220F331F38
:10579000220F331F220F331F820F931F840F951F79
:1057A000FC01E257FE4F60818A81482F50E0CA0118
:1057B000880F991F9C01220F331F220F331F220FC6
:1057C000331F820F931F840F951FFC01E157FE4F7B
:1057D0009081862F692F41E00E94DC0989838981AD
:1057E000813019F089818B83D3C08A81482F50E0A2
:1057F000CA01880F991F9C01220F331F220F331FEC
:10580000220F331F820F931F840F951FFC01E05757
:10581000FE4F60818A81482F50E0CA01880F991F8E
:105820009C01220F331F220F331F220F331F820FC1
:10583000931F840F951FFC01EF56FE4F9081862F1A
:10584000692F41E00E94DC0989838981813019F048
:1058500089818B839DC08A81482F50E0CA01880FBF
:10586000991F9C01220F331F220F331F220F331F5A
:10587000820F931F840F951FFC01EC56FE4F808111
:10588000843008F04DC08A81482F50E0CA01880F4B
:10589000991F9C01220F331F220F331F220F331F2A
:1058A000820F931F840F951FFC01EB56FE4F8081E2
:1058B0008830B0F58A81482F50E0CA01880F991FBF
:1058C0009C01220F331F220F331F220F331F820F21
:1058D000931F840F951FFC01EC56FE4F60818A8157
:1058E000482F50E0CA01880F991F9C01220F331FD7
:1058F000220F331F220F331F820F931F840F951F18
:10590000FC01EB56FE4F9081862F692F41E00E94EB
:10591000DC09898389818130C9F189818B8338C011
:105920008A81482F50E0CA01880F991F9C01220FDD
:10593000331F220F331F220F331F820F931F840F39
:10594000951FFC01EC56FE4F80818830B9F48A81A6
:10595000482F50E0CA01880F991F9C01220F331F66
:10596000220F331F220F331F820F931F840F951FA7
:10597000FC01EB56FE4F8081893040F083E0898343
:1059800005C083E0898302C083E0898389818B839A
:105990008B810F900F900F90CF91DF910895DF933F
:1059A000CF9300D000D0CDB7DEB79C838B831A8213
:1059B00019828B819C81009709F45DC0198255C0C2
:1059C0008981282F30E0C901880F991F280F391FBE
:1059D0008B819C81FC01E20FF31F40818981282F7C
:1059E00030E0C901880F991F280F391F8B819C81D6
:1059F000FC01E20FF31F9181842F692F40E00E9488
:105A0000F0088A838981282F30E0C901880F991F07
:105A1000280F391F8B819C81FC01E20FF31F5081FD
:105A20008981282F30E0C901880F991F280F391F5D
:105A30008B819C81FC01E20FF31F41818981282F1A
:105A400030E0C901880F991F280F391F8B819C8175
:105A5000FC01E20FF31F9281852F642F492F0E94D2
:105A6000DC098A8389818F5F89838981882309F48E
:105A7000A7CF1A8202C082E08A838A810F900F909A
:105A80000F900F90CF91DF910895DF93CF9300D0C7
:105A900000D00F92CDB7DEB79B838A837D836C8362
:105AA00019828A819B81009791F08C819D8100975A
:105AB00071F0EA81FB818081EA81FB8191812C81F7
:105AC0003D81692FA9010E94820C898302C082E076
:105AD000898389810F900F900F900F900F90CF9135
