:100000000C942A000C9434000C9434000C943400AA
:100010000C9434000C9434000C9434000C94340090
:100020000C9434000C9434000C9434000C94340080
:100030000C9434000C9434000C9434000C94340070
:100040000C9434000C9434000C9434000C94340060
:100050000C94340011241FBECFE5D8E0DEBFCDBF25
:100060000E9495060C94C8060C940000DF93CF9371
:100070000F92CDB7DEB71982EAE3F0E08FEF80830D
:10008000E7E3F0E08FEF8083E4E3F0E08FEF80833D
:10009000E1E3F0E08FEF8083EBE3F0E01082E8E350
:1000A000F0E01082E5E3F0E01082E2E3F0E010829D
:1000B00081E0898389810F90CF91DF910895DF934B
:1000C000CF9300D000D00F92CDB7DEB78A836B8379
:1000D00019828A818430A8F58A81282F30E03D83F7
:1000E0002C838C819D8181309105D1F02C813D81C3
:1000F000223031052CF48C819D81009761F01EC067
:100100002C813D812230310581F08C819D818330AD
:10011000910581F013C0EAE3F0E08B8180830EC08B
:10012000E7E3F0E08B81808309C0E4E3F0E08B81BA
:10013000808304C0E1E3F0E08B81808381E08983E8
:1001400002C083E0898389810F900F900F900F90F8
:100150000F90CF91DF910895DF93CF9300D000D01F
:100160000F92CDB7DEB78A836B8319828A81843080
:10017000A8F58A81282F30E03D832C838C819D81D6
:1001800081309105D1F02C813D81223031052CF454
:100190008C819D81009761F01EC02C813D812230B1
:1001A000310581F08C819D818330910581F013C0F0
:1001B000EBE3F0E08B8180830EC0E8E3F0E08B811D
:1001C000808309C0E5E3F0E08B81808304C0E2E333
:1001D000F0E08B81808381E0898302C083E08983A2
:1001E00089810F900F900F900F900F90CF91DF911A
:1001F0000895DF93CF9300D000D0CDB7DEB78A83C8
:1002000019828A81843008F041C08A81282F30E029
:100210003C832B838B819C8181309105E9F02B817C
:100220003C81223031052CF48B819C81009761F058
:100230002AC02B813C8122303105B1F08B819C8119
:1002400083309105C9F01FC0AAE3B0E0EAE3F0E013
:10025000808180958C9317C0A7E3B0E0E7E3F0E0DE
:10026000808180958C930FC0A4E3B0E0E4E3F0E0DC
:10027000808180958C9307C0A1E3B0E0E1E3F0E0DA
:10028000808180958C9381E0898302C083E089839B
:1002900089810F900F900F900F90CF91DF9108956B
:1002A000DF93CF9300D000D0CDB7DEB78A83198219
:1002B0008A81843008F041C08A81282F30E03C8355
:1002C0002B838B819C8181309105E9F02B813C81CE
:1002D000223031052CF48B819C81009761F02AC07B
:1002E0002B813C8122303105B1F08B819C818330A0
:1002F0009105C9F01FC0ABE3B0E0EBE3F0E0808113
:1003000080958C9317C0A8E3B0E0E8E3F0E080812B
:1003100080958C930FC0A5E3B0E0E5E3F0E0808129
:1003200080958C9307C0A2E3B0E0E2E3F0E0808127
:1003300080958C9381E0898302C083E089838981E1
:100340000F900F900F900F90CF91DF910895DF9352
:10035000CF9300D000D000D0CDB7DEB78A837C83A6
:100360006B8319828A81843008F044C08B819C8120
:100370000097E9F18A81282F30E03E832D838D811B
:100380009E8181309105E1F02D813E812230310541
:100390002CF48D819E81009761F026C02D813E81D5
:1003A00022303105A1F08D819E8183309105B1F01D
:1003B0001BC0EAE3F0E08081EB81FC81808314C004
:1003C000E7E3F0E08081EB81FC8180830DC0E4E312
:1003D000F0E08081EB81FC81808306C0E1E3F0E006
:1003E0008081EB81FC81808381E0898305C082E08C
:1003F000898302C083E08983898126960FB6F894A9
:10040000DEBF0FBECDBFCF91DF910895DF93CF93B5
:1004100000D000D000D0CDB7DEB78A837C836B8359
:1004200019828A81843008F044C08B819C810097B6
:10043000E9F18A81282F30E03E832D838D819E81D2
:1004400081309105E1F02D813E81223031052CF47F
:100450008D819E81009761F026C02D813E812230E2
:100460003105A1F08D819E8183309105B1F01BC0D3
:10047000E9E3F0E08081EB81FC81808314C0E6E356
:10048000F0E08081EB81FC8180830DC0E3E3F0E04C
:100490008081EB81FC81808306C0E0E3F0E0808115
:1004A000EB81FC81808381E0898305C082E08983C0
:1004B00002C083E08983898126960FB6F894DEBF57
:1004C0000FBECDBFCF91DF910895DF93CF9300D0C2
:1004D00000D000D0CDB7DEB78A836B834C831982FE
:1004E0008A81843008F0D1C08B81883008F0CDC07B
:1004F0008C81823008F0C9C08A81282F30E03E8389
:100500002D836D817E816130710509F441C08D813B
:100510009E818230910534F42D813E812115310573
:1005200071F0B0C06D817E816230710509F459C0EF
:100530008D819E818330910509F47CC0A3C0AAE31C
:10054000B0E0EAE3F0E08081482F8B81282F30E093
:1005500081E090E002C0880F991F2A95E2F780950C
:1005600084238C93AAE3B0E0EAE3F0E08081482F93
:100570008C81282F30E08B81882F90E0B90102C058
:10058000660F771F8A95E2F7CB01842B8C937AC094
:10059000A7E3B0E0E7E3F0E08081482F8B81282FCC
:1005A00030E081E090E002C0880F991F2A95E2F7C1
:1005B000809584238C93A7E3B0E0E7E3F0E08081AB
:1005C000482F8C81282F30E08B81882F90E0B90153
:1005D00002C0660F771F8A95E2F7CB01842B8C93BC
:1005E00051C0A4E3B0E0E4E3F0E08081482F8B81C8
:1005F000282F30E081E090E002C0880F991F2A95F3
:10060000E2F7809584238C93A4E3B0E0E4E3F0E088
:100610008081482F8C81282F30E08B81882F90E0BB
:10062000B90102C0660F771F8A95E2F7CB01842BD0
:100630008C9328C0A1E3B0E0E1E3F0E08081482F93
:100640008B81282F30E081E090E002C0880F991F55
:100650002A95E2F7809584238C93A1E3B0E0E1E34F
:10066000F0E08081482F8C81282F30E08B81882F0B
:1006700090E0B90102C0660F771F8A95E2F7CB01BF
:10068000842B8C9381E0898302C083E089838981F4
:1006900026960FB6F894DEBF0FBECDBFCF91DF9187
:1006A0000895DF93CF9300D000D000D0CDB7DEB750
:1006B0008A836B834C8319828A81843008F0D1C08D
:1006C0008B81883008F0CDC08C81823008F0C9C0A1
:1006D0008A81282F30E03E832D836D817E816130B9
:1006E000710509F441C08D819E818230910534F4F9
:1006F0002D813E812115310571F0B0C06D817E8163
:100700006230710509F459C08D819E818330910555
:1007100009F47CC0A3C0ABE3B0E0EBE3F0E0808180
:10072000482F8B81282F30E081E090E002C0880FB5
:10073000991F2A95E2F7809584238C93ABE3B0E070
:10074000EBE3F0E08081482F8C81282F30E08B8113
:10075000882F90E0B90102C0660F771F8A95E2F7F3
:10076000CB01842B8C937AC0A8E3B0E0E8E3F0E0FF
:100770008081482F8B81282F30E081E090E002C0FB
:10078000880F991F2A95E2F7809584238C93A8E31C
:10079000B0E0E8E3F0E08081482F8C81282F30E042
:1007A0008B81882F90E0B90102C0660F771F8A9570
:1007B000E2F7CB01842B8C9351C0A5E3B0E0E5E3D5
:1007C000F0E08081482F8B81282F30E081E090E09D
:1007D00002C0880F991F2A95E2F7809584238C9395
:1007E000A5E3B0E0E5E3F0E08081482F8C81282F7D
:1007F00030E08B81882F90E0B90102C0660F771F2F
:100800008A95E2F7CB01842B8C9328C0A2E3B0E059
:10081000E2E3F0E08081482F8B81282F30E081E0F7
:1008200090E002C0880F991F2A95E2F780958423F3
:100830008C93A2E3B0E0E2E3F0E08081482F8C816A
:10084000282F30E08B81882F90E0B90102C0660F1D
:10085000771F8A95E2F7CB01842B8C9381E0898303
:1008600002C083E08983898126960FB6F894DEBFA3
:100870000FBECDBFCF91DF910895DF93CF9300D00E
:1008800000D00F92CDB7DEB78A836B8319828A813D
:10089000843008F075C08B81883008F071C08A817F
:1008A000282F30E03D832C838C819D818130910500
:1008B00049F12C813D81223031052CF48C819D81C0
:1008C000009761F05AC02C813D812230310571F1D1
:1008D0008C819D8183309105E9F14FC0AAE3B0E09E
:1008E000EAE3F0E08081482F8B81282F30E081E01F
:1008F00090E0022E02C0880F991F0A94E2F7842725
:100900008C933BC0A7E3B0E0E7E3F0E08081482FA1
:100910008B81282F30E081E090E0022E02C0880F0A
:10092000991F0A94E2F784278C9327C0A4E3B0E0D0
:10093000E4E3F0E08081482F8B81282F30E081E0D4
:1009400090E0022E02C0880F991F0A94E2F78427D4
:100950008C9313C0A1E3B0E0E1E3F0E08081482F85
:100960008B81282F30E081E090E0022E02C0880FBA
:10097000991F0A94E2F784278C9381E0898302C04F
:1009800083E0898389810F900F900F900F900F90D3
:10099000CF91DF910895DF93CF9300D000D00F92D5
:1009A000CDB7DEB78A836B8319828A81843008F0E1
:1009B00075C08B81883008F071C08A81282F30E0A3
:1009C0003D832C838C819D818130910549F12C815F
:1009D0003D81223031052CF48C819D81009761F09E
:1009E0005AC02C813D812230310571F18C819D816D
:1009F00083309105E9F14FC0ABE3B0E0EBE3F0E009
:100A00008081482F8B81282F30E081E090E0022EFA
:100A100002C0880F991F0A94E2F784278C933BC089
:100A2000A8E3B0E0E8E3F0E08081482F8B81282F35
:100A300030E081E090E0022E02C0880F991F0A94F6
:100A4000E2F784278C9327C0A5E3B0E0E5E3F0E06C
:100A50008081482F8B81282F30E081E090E0022EAA
:100A600002C0880F991F0A94E2F784278C9313C061
:100A7000A2E3B0E0E2E3F0E08081482F8B81282FF1
:100A800030E081E090E0022E02C0880F991F0A94A6
:100A9000E2F784278C9381E0898302C083E0898315
:100AA00089810F900F900F900F900F90CF91DF9151
:100AB0000895DF93CF93CDB7DEB727970FB6F8949D
:100AC000DEBF0FBECDBF8A836B835D834C831982EB
:100AD0008A81843008F07FC08B81883008F07BC029
:100AE0008C819D81009709F473C08A81282F30E0A2
:100AF0003F832E834E815F814130510559F18E81B4
:100B00009F818230910534F42E813F81211531057A
:100B100069F05BC04E815F814230510579F18E8171
:100B20009F818330910509F43DC04FC0EAE3F0E0B6
:100B30008081282F30E08B81882F90E0A90102C0AE
:100B4000559547958A95E2F7CA018170EC81FD8140
:100B500080833BC0E7E3F0E08081282F30E08B8189
:100B6000882F90E0A90102C0559547958A95E2F734
:100B7000CA018170EC81FD81808327C0E4E3F0E04D
:100B80008081282F30E08B81882F90E0A90102C05E
:100B9000559547958A95E2F7CA018170EC81FD81F0
:100BA000808313C0E1E3F0E08081282F30E08B8167
:100BB000882F90E0A90102C0559547958A95E2F7E4
:100BC000CA018170EC81FD81808381E0898305C049
:100BD00082E0898302C083E08983898127960FB6EA
:100BE000F894DEBF0FBECDBFCF91DF910895DF93A4
:100BF000CF93CDB7DEB727970FB6F894DEBF0FBE01
:100C0000CDBF8A836B835D834C8319828A81843054
:100C100008F07FC08B81883008F07BC08C819D817B
:100C2000009709F473C08A81282F30E03F832E8318
:100C30004E815F814130510559F18E819F81823013
:100C4000910534F42E813F812115310569F05BC097
:100C50004E815F814230510579F18E819F818330D1
:100C6000910509F43DC04FC0E9E3F0E08081282FF1
:100C700030E08B81882F90E0A90102C055954795FF
:100C80008A95E2F7CA018170EC81FD8180833BC0C7
:100C9000E6E3F0E08081282F30E08B81882F90E020
:100CA000A90102C0559547958A95E2F7CA0181705E
:100CB000EC81FD81808327C0E3E3F0E08081282F71
:100CC00030E08B81882F90E0A90102C055954795AF
:100CD0008A95E2F7CA018170EC81FD81808313C09F
:100CE000E0E3F0E08081282F30E08B81882F90E0D6
:100CF000A90102C0559547958A95E2F7CA0181700E
:100D0000EC81FD81808381E0898305C082E0898355
:100D100002C083E08983898127960FB6F894DEBFED
:100D20000FBECDBFCF91DF910895DF93CF930F9288
:100D3000CDB7DEB70E94360080E060E040E00E9460
:100D4000650282E060E041E00E94650280E060E0D0
:100D500041E00E94510382E060E041E00E945103C3
:100D6000198280E060E09E012F5F3F4FA9010E9441
:100D7000F7058981882331F482E060E041E00E9438
:100D80005103EFCF82E060E040E00E945103E9CFE1
:040D9000F894FFCF05
:00000001FF
