:100000000C9466000C947F000C947F000C947F008D
:100010000C947F000C947F000C947F000C947F0064
:100020000C947F000C947F000C947F000C947F0054
:100030000C947F000C947F000C947F000C947F0044
:100040000C947F000C947F000C947F000C947F0034
:100050000C947F000C947F000C947F000C947F0024
:100060000C947F000C947F000C947F000C947F0014
:100070000C947F000C947F000C947F000C947F0004
:100080000C947F000C947F000C947F000C947F00F4
:100090000C947F000C947F000C947F000C947F00E4
:1000A0000C947F000C947F000C947F000C947F00D4
:1000B0000C947F000C947F000C947F000C947F00C4
:1000C0000C947F000C947F000C947F0011241FBEC1
:1000D000CFEFD1E2DEBFCDBF00E00CBF12E0A0E069
:1000E000B2E0E4EBFDE000E00BBF02C007900D9230
:1000F000A030B107D9F70E94AC060C94D8060C9436
:100100000000DF93CF930F92CDB7DEB781E08983F4
:10011000EAE3F0E08FEF8083E7E3F0E08FEF8083A6
:10012000E4E3F0E08FEF8083E1E3F0E08FEF8083A2
:10013000EBE3F0E01082E8E3F0E01082E5E3F0E0CA
:100140001082E2E3F0E01082198289810F90CF9152
:10015000DF910895DF93CF9300D00F920F92CDB728
:10016000DEB78A836B8381E089838A818430A0F53E
:100170008A81282F30E03D832C838C819D818130C2
:100180009105D1F02C813D81223031052CF48C81F8
:100190009D81009761F01EC02C813D812230310588
:1001A00081F08C819D818330910581F013C0EAE359
:1001B000F0E08B8180830EC0E7E3F0E08B818083E9
:1001C00009C0E4E3F0E08B81808304C0E1E3F0E068
:1001D0008B818083198202C083E0898389810F909B
:1001E0000F900F900F900F90CF91DF910895DF93B4
:1001F000CF9300D00F920F92CDB7DEB78A836B8377
:1002000081E089838A818430A0F58A81282F30E0BB
:100210003D832C838C819D8181309105D1F02C818F
:100220003D81223031052CF48C819D81009761F055
:100230001EC02C813D812230310581F08C819D8151
:100240008330910581F013C0EBE3F0E08B81808374
:100250000EC0E8E3F0E08B81808309C0E5E3F0E0C5
:100260008B81808304C0E2E3F0E08B81808319827C
:1002700002C083E0898389810F900F900F900F90C7
:100280000F90CF91DF910895DF93CF9300D00F921D
:10029000CDB7DEB78A8381E089838A81843008F014
:1002A00040C08A81282F30E03C832B838B819C8146
:1002B00081309105E9F02B813C81223031052CF40D
:1002C0008B819C81009761F02AC02B813C81223078
:1002D0003105B1F08B819C8183309105C9F01FC03D
:1002E000AAE3B0E0EAE3F0E0808180958C9317C048
:1002F000A7E3B0E0E7E3F0E0808180958C930FC046
:10030000A4E3B0E0E4E3F0E0808180958C9307C043
:10031000A1E3B0E0E1E3F0E0808180958C93198265
:1003200002C083E0898389810F900F900F900F9016
:10033000CF91DF910895DF93CF9300D00F92CDB787
:10034000DEB78A8381E089838A81843008F040C0E7
:100350008A81282F30E03C832B838B819C818130E4
:100360009105E9F02B813C81223031052CF48B8101
:100370009C81009761F02AC02B813C81223031059D
:10038000B1F08B819C8183309105C9F01FC0ABE334
:10039000B0E0EBE3F0E0808180958C9317C0A8E398
:1003A000B0E0E8E3F0E0808180958C930FC0A5E396
:1003B000B0E0E5E3F0E0808180958C9307C0A2E394
:1003C000B0E0E2E3F0E0808180958C93198202C076
:1003D00083E0898389810F900F900F900F90CF91C8
:1003E000DF910895DF93CF9300D000D0CDB7DEB773
:1003F0008A837C836B8381E089838A81843008F0DF
:1004000043C08B819C810097E1F18A81282F30E0E5
:100410003E832D838D819E8181309105E1F02D8178
:100420003E81223031052CF48D819E81009761F050
:1004300026C02D813E8122303105A1F08D819E8123
:1004400083309105B1F01BC0EAE3F0E08081EB81DD
:10045000FC81808314C0E7E3F0E08081EB81FC81C4
:1004600080830DC0E4E3F0E08081EB81FC81808338
:1004700006C0E1E3F0E08081EB81FC81808319829A
:1004800005C082E0898302C083E089838981269642
:100490000FB6F894DEBF0FBECDBFCF91DF910895A8
:1004A000DF93CF9300D000D0CDB7DEB78A837C83B3
:1004B0006B8381E089838A81843008F043C08B811B
:1004C0009C810097E1F18A81282F30E03E832D83C3
:1004D0008D819E8181309105E1F02D813E81223018
:1004E00031052CF48D819E81009761F026C02D810D
:1004F0003E8122303105A1F08D819E8183309105AE
:10050000B1F01BC0E9E3F0E08081EB81FC818083E6
:1005100014C0E6E3F0E08081EB81FC8180830DC0B4
:10052000E3E3F0E08081EB81FC81808306C0E0E3BF
:10053000F0E08081EB81FC818083198205C082E03C
:10054000898302C083E08983898126960FB6F89457
:10055000DEBF0FBECDBFCF91DF910895DF93CF9364
:1005600000D000D0CDB7DEB78A836B834C8381E0A7
:1005700089838A81843008F0C8C08A81282F30E0BE
:100580003E832D836D817E816130710509F441C008
:100590008D819E818230910534F42D813E8121151B
:1005A000310571F0B0C06D817E816230710509F452
:1005B00059C08D819E818330910509F47CC0A3C010
:1005C000AAE3B0E0EAE3F0E08081482F8B81282F96
:1005D00030E081E090E002C0880F991F2A95E2F791
:1005E000809584238C93AAE3B0E0EAE3F0E0808175
:1005F000482F8C81282F30E08B81882F90E0B90123
:1006000002C0660F771F8A95E2F7CB01842B8C938B
:100610007AC0A7E3B0E0E7E3F0E08081482F8B8168
:10062000282F30E081E090E002C0880F991F2A95C2
:10063000E2F7809584238C93A7E3B0E0E7E3F0E052
:100640008081482F8C81282F30E08B81882F90E08B
:10065000B90102C0660F771F8A95E2F7CB01842BA0
:100660008C9351C0A4E3B0E0E4E3F0E08081482F34
:100670008B81282F30E081E090E002C0880F991F25
:100680002A95E2F7809584238C93A4E3B0E0E4E319
:10069000F0E08081482F8C81282F30E08B81882FDB
:1006A00090E0B90102C0660F771F8A95E2F7CB018F
:1006B000842B8C9328C0A1E3B0E0E1E3F0E08081DB
:1006C000482F8B81282F30E081E090E002C0880F16
:1006D000991F2A95E2F7809584238C93A1E3B0E0DB
:1006E000E1E3F0E08081482F8C81282F30E08B817E
:1006F000882F90E0B90102C0660F771F8A95E2F754
:10070000CB01842B8C93198202C083E08983898179
:1007100026960FB6F894DEBF0FBECDBFCF91DF9106
:100720000895DF93CF9300D000D0CDB7DEB78A8392
:100730006B834C8381E089838A81843008F0C8C050
:100740008A81282F30E03E832D836D817E81613048
:10075000710509F441C08D819E818230910534F488
:100760002D813E812115310571F0B0C06D817E81F2
:100770006230710509F459C08D819E8183309105E5
:1007800009F47CC0A3C0ABE3B0E0EBE3F0E0808110
:10079000482F8B81282F30E081E090E002C0880F45
:1007A000991F2A95E2F7809584238C93ABE3B0E000
:1007B000EBE3F0E08081482F8C81282F30E08B81A3
:1007C000882F90E0B90102C0660F771F8A95E2F783
:1007D000CB01842B8C937AC0A8E3B0E0E8E3F0E08F
:1007E0008081482F8B81282F30E081E090E002C08B
:1007F000880F991F2A95E2F7809584238C93A8E3AC
:10080000B0E0E8E3F0E08081482F8C81282F30E0D1
:100810008B81882F90E0B90102C0660F771F8A95FF
:10082000E2F7CB01842B8C9351C0A5E3B0E0E5E364
:10083000F0E08081482F8B81282F30E081E090E02C
:1008400002C0880F991F2A95E2F7809584238C9324
:10085000A5E3B0E0E5E3F0E08081482F8C81282F0C
:1008600030E08B81882F90E0B90102C0660F771FBE
:100870008A95E2F7CB01842B8C9328C0A2E3B0E0E9
:10088000E2E3F0E08081482F8B81282F30E081E087
:1008900090E002C0880F991F2A95E2F78095842383
:1008A0008C93A2E3B0E0E2E3F0E08081482F8C81FA
:1008B000282F30E08B81882F90E0B90102C0660FAD
:1008C000771F8A95E2F7CB01842B8C93198202C0A3
:1008D00083E08983898126960FB6F894DEBF0FBE28
:1008E000CDBFCF91DF910895DF93CF9300D00F92CA
:1008F0000F92CDB7DEB78A836B8381E089838A81CB
:10090000843008F070C08A81282F30E03D832C832A
:100910008C819D818130910549F12C813D8122306E
:1009200031052CF48C819D81009761F05AC02C8197
:100930003D812230310571F18C819D81833091059B
:10094000E9F14FC0AAE3B0E0EAE3F0E08081482F8C
:100950008B81282F30E081E090E0022E02C0880FCA
:10096000991F0A94E2F784278C933BC0A7E3B0E079
:10097000E7E3F0E08081482F8B81282F30E081E091
:1009800090E0022E02C0880F991F0A94E2F7842794
:100990008C9327C0A4E3B0E0E4E3F0E08081482F2B
:1009A0008B81282F30E081E090E0022E02C0880F7A
:1009B000991F0A94E2F784278C9313C0A1E3B0E057
:1009C000E1E3F0E08081482F8B81282F30E081E047
:1009D00090E0022E02C0880F991F0A94E2F7842744
:1009E0008C93198202C083E0898389810F900F90D4
:1009F0000F900F900F90CF91DF910895DF93CF93D9
:100A000000D00F920F92CDB7DEB78A836B8381E05F
:100A100089838A81843008F070C08A81282F30E071
:100A20003D832C838C819D818130910549F12C81FE
:100A30003D81223031052CF48C819D81009761F03D
:100A40005AC02C813D812230310571F18C819D810C
:100A500083309105E9F14FC0ABE3B0E0EBE3F0E0A8
:100A60008081482F8B81282F30E081E090E0022E9A
:100A700002C0880F991F0A94E2F784278C933BC029
:100A8000A8E3B0E0E8E3F0E08081482F8B81282FD5
:100A900030E081E090E0022E02C0880F991F0A9496
:100AA000E2F784278C9327C0A5E3B0E0E5E3F0E00C
:100AB0008081482F8B81282F30E081E090E0022E4A
:100AC00002C0880F991F0A94E2F784278C9313C001
:100AD000A2E3B0E0E2E3F0E08081482F8B81282F91
:100AE00030E081E090E0022E02C0880F991F0A9446
:100AF000E2F784278C93198202C083E0898389817D
:100B00000F900F900F900F900F90CF91DF9108955D
:100B1000DF93CF93CDB7DEB727970FB6F894DEBF3C
:100B20000FBECDBF8A836B835D834C8381E0898355
:100B30008A81843008F072C08A81282F30E03F8398
:100B40002E834E815F814130510559F18E819F8105
:100B50008230910534F42E813F812115310569F0F1
:100B60005BC04E815F814230510579F18E819F815A
:100B70008330910509F43DC04FC0EAE3F0E0808185
:100B8000282F30E08B81882F90E0A90102C0559575
:100B900047958A95E2F7CA018170EC81FD818083D7
:100BA0003BC0E7E3F0E08081282F30E08B81882F85
:100BB00090E0A90102C0559547958A95E2F7CA01D0
:100BC0008170EC81FD81808327C0E4E3F0E08081C7
:100BD000282F30E08B81882F90E0A90102C0559525
:100BE00047958A95E2F7CA018170EC81FD81808387
:100BF00013C0E1E3F0E08081282F30E08B81882F63
:100C000090E0A90102C0559547958A95E2F7CA017F
:100C10008170EC81FD818083198202C083E0898329
:100C2000898127960FB6F894DEBF0FBECDBFCF9156
:100C3000DF910895DF93CF93CDB7DEB727970FB637
:100C4000F894DEBF0FBECDBF8A836B835D834C8378
:100C500081E089838A81843008F072C08A81282FDC
:100C600030E03F832E834E815F814130510559F141
:100C70008E819F818230910534F42E813F81211530
:100C8000310569F05BC04E815F814230510579F1D9
:100C90008E819F818330910509F43DC04FC0EBE305
:100CA000F0E08081282F30E08B81882F90E0A9012F
:100CB00002C0559547958A95E2F7CA018170EC818B
:100CC000FD8180833BC0E8E3F0E08081282F30E0A5
:100CD0008B81882F90E0A90102C0559547958A9590
:100CE000E2F7CA018170EC81FD81808327C0E5E3D2
:100CF000F0E08081282F30E08B81882F90E0A901DF
:100D000002C0559547958A95E2F7CA018170EC813A
:100D1000FD81808313C0E2E3F0E08081282F30E082
:100D20008B81882F90E0A90102C0559547958A953F
:100D3000E2F7CA018170EC81FD818083198202C0D3
:100D400083E08983898127960FB6F894DEBF0FBEB2
:100D5000CDBFCF91DF910895DF93CF930F92CDB7A1
:100D6000DEB70E94810080E060E040E00E94AE02B9
:100D700082E060E041E00E94AE0280E060E041E09D
:100D80000E94910382E060E040E00E94910380E0D5
:100D900060E09E012F5F3F4FA9010E941A068981E2
:100DA000882381F782E060E041E00E949103EACF6E
:040DB000F894FFCFE5
:00000001FF
