:100000000C942A000C943F000C943F000C943F0089
:100010000C943F000C943F000C943F000C943F0064
:100020000C943F000C943F000C943F000C943F0054
:100030000C943F000C943F000C943F000C943F0044
:100040000C943F000C943F000C943F000C943F0034
:100050000C943F0011241FBECFE5D8E0DEBFCDBF1A
:1000600010E0A0E6B0E0EAEBF1E002C005900D92EE
:10007000AA36B107D9F70E9441000C94DB000C941A
:100080000000DF93CF93CDB7DEB760970FB6F8943B
:10009000DEBF0FBECDBFCE0102969D878C87E0E606
:1000A000F0E0FF87EE87FAE0F88BEE85FF850080B1
:1000B0008E859F8501969F878E87EC85FD850082C2
:1000C0008C859D8501969D878C8798899150988B0A
:1000D000E889EE2351F7AAE3B0E0EAE3F0E080819B
:1000E0008E7F8C93AAE3B0E0EAE3F0E080818D7F1D
:1000F0008C93ABE3B0E0EBE3F0E0808181608C9324
:10010000ABE3B0E0EBE3F0E0808182608C93E4E36A
:10011000F0E08FEF8083E5E3F0E08A81808319824D
:10012000E9E3F0E08081882F90E081709070009783
:10013000D9F48981893018F489818F5F8983E9E353
:10014000F0E08081882F90E0817090700097B9F383
:10015000A5E3B0E08981282F30E0CE010296FC01B2
:10016000E20FF31F80818C93E9E3F0E080818695B4
:10017000882F90E081709070009791F68981882394
:1001800019F0898181508983E9E3F0E080818695C7
:10019000882F90E0817090700097B1F3A5E3B0E0F4
:1001A0008981282F30E0CE010296FC01E20FF31F77
:0A01B00080818C93B5CFF894FFCF47
:0A01BA003F065B4F666D7D077F6F07
:00000001FF
